:10038600E4F5B1F5B1F5B3F5B4F5ACF5ADFF7EC264
:100396007D01FC1203C143B408C2927F2C7E017D0D
:1003A600007C001202A3D2927F2C7E017D007C008D
:0B03B6001202A37F4412041580DF2216
:1003EC00538EF7438901D28CEF4E6012758AF375E8
:1003FC008CFF308DFDC28DEF1F70011E80EAC28C08
:01040C0022CD
:1002F0008F0B8E0A8D098C08538EF7438901D28C9F
:10030000E4FFFEFDFCAB0BAA0AA909A808C3120072
:10031000D16025758ACA758CFA308DFDC28D74FF47
:10032000250BF50BE50A34FFF50AE50934FFF5095D
:0B033000E50834FFF50880C8C28C22ED
:10033B008F0F8E0E8D0D8C0C538EEF438910D28E3A
:10034B00E4FFFEFDFCAB0FAA0EA90DA80CC3120017
:10035B00D16025758BCA758DFA308FFDC28F74FFF6
:10036B00250FF50FE50E34FFF50EE50D34FFF50DFA
:0B037B00E50C34FFF50C80C8C28E2298
:100255008F138E128D118C1053C9BF53C9DF43C93B
:1002650010D2CAE4FFFEFDFCAB13AA12A911A81017
:10027500C31200D1602575CC6075CDF030CFFDC2BD
:10028500CF74FF2513F513E51234FFF512E511348C
:0E029500FFF511E51034FFF51080C8C2CA2233
:1002A3008F1F8E1E8D1D8C1C75C40243C408E4FF72
:1002B300FEFDFCAB1FAA1EA91DA81CC31200D16022
:1002C3002875C56075C6F0E5C430E4FB53C4EF740C
:1002D300FF251FF51FE51E34FFF51EE51D34FFF551
:0D02E3001DE51C34FFF51C80C553C4F72237
:1003C100759852438920438780438E1053C4DFAB15
:1003D10007AA06A905A8047F407E427D0F7C001272
:0B03E100003FEF04F404F58DD28E22E3
:100191008F178E168D158C1475985243878053C412
:1001A100F843C420AB17AA16A915A8147F407E42B4
:1001B1007D0F7C0012003FC3E49FFFE49EFE7401AB
:1001C1009DFDE49CFC78081200E28FC6AB17AA16CD
:1001D100A915A8147F407E427D0F7C0012003FC309
:1001E100E49FFFE49EFE74019DFDE49CFCEFE48F1F
:0501F100C543C4082213
:07040D003098FDAF99C29881
:0104140022C5
:08041500C2998F993099FD2274
:1001F6008F1B8E1A8D198C1875F85253C4F8AB1BC9
:10020600AA1AA919A8187F407E427D0F7C00120009
:100216003FC3E49FFFE49EFE74019DFDE49CFC78D1
:10022600081200E28FC6AB1BAA1AA919A8187F40AC
:100236007E427D0F7C0012003FC3E49FFFE49EFEDA
:0F02460074019DFDE49CFCEFE48FC543C40822C6
:07041D0030F8FDAF9AC2F8B0
:0104240022B5
:08042500C2F98F9A30F9FD22A3
:030000000200F506
:1000F50075C7AA75C755439F0175AF0475A63075B9
:10010500A70075C7AA75C75543A401AAAE75A63140
:1001150075C7AA75C75543A401ABAE75A63275C799
:10012500AA75C75543A401ACAE75A63375C7AA75A4
:10013500C75543A401ADAE75C7AA75C755539FFEF4
:1001450075C7AA75C75575910175C7AA75C7558A2B
:100155008475C7AA75C7558B8575C7AA75C7558C8C
:10016500EF75C7AA75C7558DF775C7AA75C75575B4
:100175009100787FE4F6D8FD9000007FFF7E01E4D2
:0C018500F0A3DFFCDEFA75812002038687
:1000030075F008758200EF2FFFEE33FECD33CDCCB4
:1000130033CCC58233C5829BED9AEC99E582984037
:100023000CF582EE9BFEED9AFDEC99FC0FD5F0D614
:10003300E4CEFBE4CDFAE4CCF9A88222B800C1B93E
:100043000059BA002DEC8BF084CFCECDFCE5F0CB7C
:10005300F97818EF2FFFEE33FEED33FDEC33FCEBB5
:1000630033FB10D703994004EB99FB0FD8E5E4F970
:10007300FA227818EF2FFFEE33FEED33FDEC33FC5D
:10008300C933C910D7059BE99A4007EC9BFCE99A51
:10009300F90FD8E0E4C9FAE4CCFB2275F010EF2F96
:1000A300FFEE33FEED33FDCC33CCC833C810D70796
:1000B3009BEC9AE899400AED9BFDEC9AFCE899F8D1
:0E00C3000FD5F0DAE4CDFBE4CCFAE4C8F92264
:1000D100EB9FF5F0EA9E42F0E99D42F0E89C45F085
:0100E10022FC
:1000E200E8600FECC313FCED13FDEE13FEEF13FFFC
:0300F200D8F12220
:00000001FF
