:100892000A535049206572726F722E0A000A536C15
:1008A2006176652052657475726E202563210A0097
:1008B2000A2A3D3D3D3D3D3D3D3D3D3D3D3D3D3DAC
:1008C2003D3D3D3D3D3D3D3D3D3D3D3D3D3D3D3D56
:1008D2003D3D3D3D3D3D3D3D3D3D3D3D3D3D3D3D46
:1008E2003D3D3D3D3D3D3D3D3D3D3D3D3D3D3D3D36
:1008F2003D3D3D3D3D000A2A20204E616D653A2076
:100902004E37364538383520535049204D6173747F
:10091200657228506F6C6C696E67292044656D6F33
:1009220020436F64652E000A2A3D3D3D3D3D3D3D1D
:100932003D3D3D3D3D3D3D3D3D3D3D3D3D3D3D3DE5
:100942003D3D3D3D3D3D3D3D3D3D3D3D3D3D3D3DD5
:100952003D3D3D3D3D3D3D3D3D3D3D3D3D3D3D3DC5
:100962003D3D3D3D3D3D3D3D3D3D3D3D0A000A5342
:0D09720050492054657374204F4B210A003A
:100E18007BFF7A087992120065D2877FF47E017D84
:100E2800007C00120C81C2877FF47E017D007C006B
:050E3800120C8180E4B2
:070EC40043F30153F3FD228B
:100D170053B1EF53B2EF53B1DF53B2DF53B5FD53C6
:100D2700B6FD53B5FB53B6FB43F40853F37F53F3B8
:100D3700DF53F3F743F30443F310120EC443F340B6
:040D470053F47F22C0
:100660008B248A258926C28475F5907F017E00122D
:100670000E3DE5F430E7FB53F47FE5F5644E60038F
:10068000120E187BFF7A08799F85F52D120065758B
:10069000F5017F017E00120E3DE5F430E7FB53F4D7
:1006A0007FE5F564556003120E187BFF7A08799F89
:1006B00085F52D12006575F5027F017E00120E3D55
:1006C000E5F430E7FB53F47FE5F564566003120E62
:1006D000187BFF7A08799F85F52D12006575F50363
:1006E0007F017E00120E3DE5F430E7FB53F47FE519
:1006F000F5644F6003120E187BFF7A08799F85F529
:100700002D12006575F5047F017E00120E3DE5F4A3
:1007100030E7FB53F47FE5F564546003120E187B59
:10072000FF7A08799F85F52D12006575F5FF7F0129
:100730007E00120E3DE5F430E7FB53F47FAB24AAB4
:1007400025A926E5F512035F7BFF7A08799F85F5D9
:100750002D12006575F5FF7F017E00120E3DE5F458
:1007600030E7FB53F47FAB27AA28A929E5F512034C
:100770005F7BFF7A08799F85F52D120065D2842270
:1009DC00120E927F807E257D007C00120DC9120ABA
:1009EC00E97BFF7A0879B21200657BFF7A0879F807
:1009FC001200657BFF7A097929120065120D1775B3
:100A0C0027007528007529237B007A0079221206AD
:100A1C0060E522644F6009E523644E6003120E18F2
:0B0A2C007BFF7A09797012006580FEE4
:10051D00EF1460431470030205E014700302061C0F
:10052D001460612404600302065AA2AF9209C2AF9F
:10053D0075C7AA75C755439780A20992AFA2AF920E
:10054D0009C2AF75C7AA75C7555397BFA20992AF18
:10055D00E59630E7FB8058A2AF9209C2AF75C7AAE6
:10056D0075C75553977FA20992AFA2AF9209C2AF3B
:10057D0075C7AA75C755439740A20992AFE5963046
:10058D00E6FB802BA2AF9209C2AF75C7AA75C755FE
:10059D0053977FA20992AFA2AF9209C2AF75C7AAB6
:1005AD0075C7555397BFA20992AFE59630E3FBA2ED
:1005BD00AF9209C2AF75C7AA75C7555396FBA2096D
:1005CD0092AFA2AF9209C2AF75C7AA75C755439630
:1005DD00028076A2AF9209C2AF75C7AA75C75543FF
:1005ED009720A20992AFE59630E5FBA2AF9209C222
:1005FD00AF75C7AA75C7555396FBA20992AFA2AFA7
:10060D009209C2AF75C7AA75C7555396FD803AA218
:10061D00AF9209C2AF75C7AA75C755439710A20906
:10062D0092AFE59630E4FBA2AF9209C2AF75C7AAAF
:10063D0075C755439604A20992AFA2AF9209C2AFF6
:10064D0075C7AA75C7555396FDA20992AFE59720B8
:03065D00E0FB229D
:100DC90075985243892053877F538EEF53C4DFAB05
:100DD90007AA06A905A804E4FF7EE1FDFC1203ADFC
:080DE900EFF404F58DD28E2217
:100D4B00759852438920438780538EEF53C4DFAB92
:100D5B0007AA06A905A8047F007EC27D017C0012AC
:0A0D6B0003ADEFF404F58DD28E22E3
:100D750075985243892053877F438E1053C4DFAB48
:100D850007AA06A905A8047F007E8C7D0A7C0012AF
:0A0D950003ADEFF404F58DD28E22B9
:100D9F00759852438920438780438E1053C4DFAB2D
:100DAF0007AA06A905A8047F007E187D157C0012EE
:0A0DBF0003ADEFF404F58DD28E228F
:100A37008F0B8E0A8D098C0875985253877F53C484
:100A4700F843C420AB0BAA0AA909A8087F007E8C2B
:100A57007D0A7C001203ADC3E49FFFE49EFE740190
:100A67009DFDE49CFC78081204508FC6AB0BAA0AC4
:100A7700A909A8087F007E8C7D0A7C001203ADC3FC
:090A8700E49FFF8FC543C408225F
:100A90008F0F8E0E8D0D8C0C75985243878053C42A
:100AA000F843C420AB0FAA0EA90DA80C7F007E1836
:100AB0007D157C001203ADC3E49FFFE49EFE74012C
:100AC0009DFDE49CFC78081204508FC6AB0FAA0E63
:100AD000A90DA80C7F007E187D157C001203ADC304
:090AE000E49FFF8FC543C4082206
:100B40008F138E128D118C1075F85253C4F8AB139D
:100B5000AA12A911A8107F007E187D157C0012032F
:100B6000ADC3E49FFFE49EFE74019DFDE49CFC7810
:100B7000081204508FC6AB13AA12A911A8107F0047
:100B80007E187D157C001203ADC3E49FFF8FC54323
:030B9000C4082274
:070EA4003098FDAF99C298E0
:010EAB002224
:080EAC00C2998F993099FD22D3
:070EB40030F8FDAF9AC2F80F
:010EBB002214
:080EBC00C2F98F9A30F9FD2202
:100E9200E4F5B1F5B2F5B3F5B4F5B5F5B6F5ACF5E3
:020EA200AD227F
:100E5E0075C7AA75C755A2AF9209C2AF75C7AA7555
:0A0E6E00C755439F80A20992AF22EE
:040ECB0043B4082202
:06097F00E54224F8F542F8
:10098500F812048800000000E47FFF7EFFFDFCA84C
:100995004212046FC312043F5036E5422404F81294
:1009A5000463EF2401FFE43EFEE43DFDE43CFCE589
:1009B500422404F812047CA842120463EF2401FFC8
:1009C500E43EFEE43DFDE43CFCA84212047C80B814
:0709D500E5422408F542226F
:100E3D00538EF7438901D28CEF4E6012758AEE7591
:100E4D008CFF308DFDC28DEF1F70ED1E80EAC28CC0
:010E5D002272
:100C81008F2D8E2C8D2B8C2A538EF7438901D28C7C
:100C9100E4FFFEFDFCAB2DAA2CA92BA82AC312044C
:100CA1003F6025758ACD758CF8308DFDC28DE52D9F
:100CB10024FFF52DE52C34FFF52CE52B34FFF52B26
:0B0CC100E52A34FFF52A80C8C28C220F
:100CCC008F178E168D158C14538EEF438910D28E80
:100CDC00E4FFFEFDFCAB17AA16A915A814C3120459
:100CEC003F6025758BCD758DF8308FFDC28FE51764
:100CFC0024FFF517E51634FFF516E51534FFF51549
:0B0D0C00E51434FFF51480C8C28E22ED
:100BE6008F1B8E1A8D198C1853C9BF53C9DF43C981
:100BF60010D2CAE4FFFEFDFCAB1BAA1AA919A8185D
:100C0600C312043F602575CC6675CDEA30CFFDC2B0
:100C1600CFE51B24FFF51BE51A34FFF51AE5193459
:0E0C2600FFF519E51834FFF51880C8C2CA2280
:100C34008F1F8E1E8D1D8C1C75C40243C408E4FFD7
:100C4400FEFDFCAB1FAA1EA91DA81CC312043F6015
:100C54002875C56675C6EAE5C430E4FB53C4EFE500
:100C64001F24FFF51FE51E34FFF51EE51D34FFF5B7
:0D0C74001DE51C34FFF51C80C553C4F7229C
:100B93008F418E408D3F8C3E538FFB538FFD538F80
:100BA300FEE4F586538FDF438F08E4FFFEFDFCABC5
:100BB30041AA40A93FA83EC312043F6022E58F30FB
:100BC300E4FB538FEFE54124FFF541E54034FFF5A6
:100BD30040E53F34FFF53FE53E34FFF53E80CB5320
:030BE3008FF72267
:100780000A3D3D3D3D3D3D3D3D3D3D3D3D3D3D3DCC
:100790003D3D3D3D3D3D3D3D3D3D3D3D3D3D3D3D89
:1007A0003D3D3D3D3D3D3D3D3D3D3D3D3D3D3D3D79
:1007B0003D3D3D3D3D3D3D3D3D3D3D3D3D3D3D3D69
:1007C0003D3D3D3D3D000A2A2020436F707972690E
:1007D0006768742863292032303135204E75766F72
:1007E000746F6E20546563686E6F6C6F6779204319
:1007F0006F72702E20416C6C207269676874732070
:1008000072657365727665642E2020000A2A2020A6
:10081000436F6E7461637420452D4D61696C3A209D
:100820004D6963726F432D38626974406E75766FDF
:10083000746F6E2E636F6D202020202020202020DA
:1008400020202020202020202020202020202020A8
:1008500020000A2A202044656D6F20566572736956
:100860006F6E20203A202532642E2532642E2532E8
:1008700064000A2A202046696E6973686564204412
:10088000617465203A202532642E2532642E25328B
:02089000640002
:100AE9007BFF7A0779801200657BFF7A0779C61246
:100AF90000657BFF7A08790C1200657BFF7A08791B
:100B090052752D00752E01E4F52FF530F531F532CA
:100B19001200657BFF7A087972752D07752EDF75CE
:100B29002F007530057531007532011200657BFFA4
:070B39007A077980020065D4
:03000000020E7875
:100E7800787FE4F6D8FD9000007FFF7E01E4F0A3C0
:0A0E8800DFFCDEFA7581420209DC8E
:10035F00BB010689828A83F0225002F722BBFE017D
:02036F00F32277
:1003710075F008758200EF2FFFEE33FECD33CDCC43
:1003810033CCC58233C5829BED9AEC99E5829840C6
:100391000CF582EE9BFEED9AFDEC99FC0FD5F0D6A3
:1003A100E4CEFBE4CDFAE4CCF9A88222B800C1B9CD
:1003B1000059BA002DEC8BF084CFCECDFCE5F0CB0B
:1003C100F97818EF2FFFEE33FEED33FDEC33FCEB44
:1003D10033FB10D703994004EB99FB0FD8E5E4F9FF
:1003E100FA227818EF2FFFEE33FEED33FDEC33FCEC
:1003F100C933C910D7059BE99A4007EC9BFCE99AE0
:10040100F90FD8E0E4C9FAE4CCFB2275F010EF2F24
:10041100FFEE33FEED33FDCC33CCC833C810D70724
:100421009BEC9AE899400AED9BFDEC9AFCE899F85F
:0E0431000FD5F0DAE4CDFBE4CCFAE4C8F922F2
:10043F00EB9FF5F0EA9E42F0E99D42F0E89C45F013
:01044F00228A
:10045000E8600FECC313FCED13FDEE13FEEF13FF8A
:03046000D8F122AE
:0C046300E6FC08E6FD08E6FE08E6FF22C5
:0D046F00E6FB08E6F908E6FA08E6CBF822FD
:0C047C00ECF608EDF608EEF608EFF622AC
:10048800D083D082E493F608740193F6087402933B
:09049800F608740393F674047372
:10000300E539242DF8E6053922782A300702782DC0
:10001300E475F0011204E70204A12000EB7F2ED265
:10002300008018EF540F2490D43440D4FF30040BD5
:10003300EF24BFB41A0050032461FFE53A600215B0
:100043003A053DE53D7002053C30070D782AE4751D
:10005300F0011204E7EF02035F020DF17403D2070C
:100063008003E4C207F5398B2A8A2B892CE4F53AFD
:10007300F53CF53DE53A60077F2012003E80F575BB
:100083003BFFC201C200C202C203C205C206C208CC
:1000930012000CFF700D3007057F0012004FAF3DBB
:1000A300AE3C22B4255FC2D5C20412000CFF24D09B
:1000B300B40A00501A75F00A783A30D50508B6FF2D
:1000C3000106C6A426F620D5047002D20380D924E3
:1000D300CFB41A00EF5004C2E5D20402024FD2019A
:1000E30080C6D20080C0D20280BCD2D580BAD205ED
:1000F30080B47F2012003E2002077401B53A00400D
:10010300F1120003FF12003E020077D208D20680EC
:1001130095120003FB120003FA120003F94A4B7015
:100123000679207A037BFF20022EE53A602A7E00BF
:100133008E827583001204BA60060EEE653B70F082
:10014300C2D5EBC0E0EAC0E0E9C0E0EE120296D00F
:10015300E0F9D0E0FAD0E0FB1204A1FF60AAEBC003
:10016300E0EAC0E0E9C0E012003ED0E02401F9D0AB
:10017300E03400FAD0E0FBE53B0460DCD53BD980FA
:10018300877BFF7A027992D202809C791080027970
:1001930008C206C2088008D2D5790A8004790AC247
:1001A300D5E53B047002F53BE4FAFDFEFF120003C4
:1001B300FC7B08200113120003FD7B1030000A12A0
:1001C3000003FE120003FF7B20EC3382D592D5504F
:1001D30013C3E43000069FFFE49EFEE42001039D69
:1001E300FDE49CFCE4CBF8C201EC700CCFCECDCC8B
:1001F300E824F8F870F38017C3EF33FFEE33FEED16
:1002030033FDEC33FCEB33FB994002FB0FD8E9EBF6
:10021300300105F8D0E0C448B201C0E00AEC4D4E0D
:100223004F78207B0070C2EAB53B0040BCC0E012AF
:100233000298D0F0D0E0200104C4C0E0C4B201C0F1
:10024300F0120027D0F0D5F0EB0200771204F7018B
:100253001453018E5800E54C00E14201924F019A7C
:0F02630044019A4900FA4301A0550184460184E1
:100272004501844703405000E92D00ED2E01102B6B
:1002820000F123010E2003292A00A94800000108D9
:100292003F3F3F00790AA2D5200314300509B91067
:1002A200020404B9080104A2D52006025001042068
:1002B20002689202B53A005034C0E07F2030031940
:1002C2007F30A20272067205500F1202EFC202C202
:1002D20006C205C2087F30800F300503E9C0E01274
:1002E200003E300503D0E0F9D0E0B53ACC30051736
:1002F2007F30B9100C12003E7F583004077F78809F
:1003020003B9080312003E3002057F2D02003E7F32
:10031200202008F87F2B2006F322920280CF286E3D
:10032200756C6C2900D2011200033001F8C2017809
:100332003A30D50108F60200A92D5043495812005F
:10034200032403B405004001E490033B9312002F01
:0D035200743A12002FD203753A0402018E96
:1004A100BB010689828A83E0225002E722BBFE0259
:0904B100E32289828A83E493228C
:1004BA00BB010CE58229F582E5833AF583E02250F7
:1004CA0006E92582F8E622BBFE06E92582F8E22241
:0D04DA00E58229F582E5833AF583E493225B
:1004E700FAE6FB0808E6F925F0F618E6CA3AF62216
:1004F700D083D082F8E4937012740193700DA3A394
:1005070093F8740193F5828883E4737402936860A7
:06051700EFA3A3A380DFA7
:100DF100EFB40A07740D120DFC740A309811A8990A
:100E0100B8130CC2983098FDA899C298B811F63061
:070E110099FDC299F5992239
:00000001FF
