:07000300759630759730225D
:1005A800120003E4F5B1F5B2F5B3F5B4F5ACF5AD69
:0705B80053890F4389102253
:10050600E4F50EF50FC2021205A812060012053C0C
:100516001205BFD2AFD28C7FF47E0112058ED29423
:10052600D283309407308304D2028002C2023002A2
:06053600F112012A80F819
:10012A00E4F510F511F5127F01FE12058E208725E0
:10013A0030862230851F7F017E0012058E05112030
:10014A0087063086032085EEE511D39414400675A0
:10015A00120112032420872520862230851F7F0161
:10016A007E0012058E05112087062086032085EE63
:10017A00E511D39414400675120212032420872530
:10018A0030862220851F7F017E0012058E051120F0
:10019A0087063086033085EEE511D3941440067540
:1001AA00120312032430872520862230851F7F01FF
:1001BA007E0012058E05113087062086032085EE03
:1001CA00E511D394144006751204120324308725CE
:1001DA0030862220851F7F017E0012058E05113090
:1001EA0087063086033085EEE511D39414400675F0
:1001FA00120512032430872520862220851F7F01BD
:10020A007E0012058E05113087062086033085EEA2
:0D021A00E511D3941440067512061203245A
:0102270022B4
:05032400E4F511AF1229
:10032900EF24FE601C14602514602E1460391460DB
:10033900442405704BD2917F197E0012058EC2911B
:1003490022D2937F197E0012058EC29322D2927F08
:10035900197E0012058EC29222D280D2807F197E28
:100369000012058EC28022D281D2817F197E0012AD
:10037900058EC28122D2907F197E0012058EC2900D
:010389002251
:0305E200011F00F6
:0D05F200E4FFC2EFD2EE30EFFDAFC3051FF6
:0105FF0022D9
:0E06000053E8C0E4F5F6FF12022843E10122A0
:10022800EFB4080040030202B4900238F82828739B
:1002380002025002025A020267020274020281029A
:10024800028E02029B0202A843B38053B47F43F696
:10025800012243E80143AC0153ADFE43F6022243B9
:10026800E80243B18053B27F43F6042243E80343D4
:10027800B14053B2BF43F6082243E80443B12053C8
:10028800B2DF43F6102243E80543B11053B2EF43FF
:10029800F6202243E80643B10853B2F743F640225A
:0D02A80043E80743B30253B4FD43F6802240
:10053C0043B11053B2EF43B12053B2DF43B1405338
:10054C00B2BF43B18053B27F53B3EF43B41043B344
:10055C008053B47FC281C280C290C291C292C293B6
:01056C00226C
:0C05E500010C00010D00C100020A000022
:1005BF00438E087508CC75091685088C85098AD273
:0205CF00A9225F
:03000B000202B539
:1002B500C0E0C0F0C083C082C0D075D000C000C00F
:1002C50001C002C003C004C005C006C00785088C74
:1002D50085098A050BE50B7002050AC39488E50AB2
:1002E500941340201205F2EF250CF50CE51FB464BC
:1002F5000DE50C75F06484F50D751F00D200750AC7
:1003050000750B00D007D006D005D004D003D0026D
:0F031500D001D000D0D0D082D083D0F0D0E03251
:0300000002000EED
:10000E0075C7AA75C755439F0175AF0475A63075A0
:10001E00A70075C7AA75C75543A401AAAE75A63128
:10002E0075C7AA75C75543A401ABAE75A63275C781
:10003E00AA75C75543A401ACAE75A63375C7AA758C
:10004E00C75543A401ADAE75C7AA75C755539FFEDC
:10005E0075C7AA75C75575910175C7AA75C7558A13
:10006E008475C7AA75C7558B8575C7AA75C7558C74
:10007E00EF75C7AA75C7558DF775C7AA75C755759C
:10008E009100787FE4F6D8FD9000007FFF7E01E4BA
:0C009E00F0A3DFFCDEFA7581280200E50B
:10058E00EF4E6015E4FDFC0DBD00010CBC38F8BD4E
:09059E0054F5EF1F70EA1E80E71E
:0105A7002231
:10056D00538EF7438901D28CEF4E6012758AF37565
:10057D008CFF308DFDC28DEF1F70ED1E80EAC28C99
:01058D00224B
:100425008F168E158D148C13538EF7438901D28C3C
:10043500E4FFFEFDFCAB16AA15A914A813C312050B
:10044500D16025758ACA758CFA308DFDC28DE51689
:1004550024FFF516E51534FFF515E51434FFF514FD
:0B046500E51334FFF51380C8C28C22A1
:100470008F1A8E198D188C17538EEF438910D28ED8
:10048000E4FFFEFDFCAB1AAA19A918A817C31205B0
:10049000D16025758BF3758DFF308FFDC28FE51A06
:1004A00024FFF51AE51934FFF519E51834FFF5189E
:0B04B000E51734FFF51780C8C28E224C
:1004BB008F1E8E1D8D1C8C1B538EEF438910D28E7D
:1004CB00E4FFFEFDFCAB1EAA1DA91CA81BC3120555
:1004DB00D16025758BCA758DFA308FFDC28FE51EE5
:1004EB0024FFF51EE51D34FFF51DE51C34FFF51C3F
:0B04FB00E51B34FFF51B80C8C28E22F9
:10038A008F248E238D228C2153C9BF53C9DF43C9C1
:10039A0010D2CAE4FFFEFDFCAB24AA23A922A8219D
:1003AA00C31205D1602575CC6075CDF030CFFDC282
:1003BA00CFE52424FFF524E52334FFF523E5223491
:0E03CA00FFF522E52134FFF52180C8C2CA22CA
:1003D8008F288E278D268C2575C40243C408E4FF18
:1003E800FEFDFCAB28AA27A926A825C31205D160C3
:1003F8002875C56075C6F0E5C430E4FB53C4EFE565
:100408002824FFF528E52734FFF527E52634FFF5EE
:0D04180026E52534FFF52580C553C4F722E5
:1000AA00020506E493A3F8E493A34003F68001F261
:1000BA0008DFF48029E493A3F85407240CC8C33357
:1000CA00C4540F4420C8834004F456800146F6DF26
:1000DA00E4800B01020408102040809005E2E47ECF
:1000EA00019360BCA3FF543F30E509541FFEE4931B
:1000FA00A360010ECF54C025E060A840B8E493A3E2
:10010A00FAE493A3F8E493A3C8C582C8CAC583CA0C
:10011A00F0A3C8C582C8CAC583CADFE9DEE780BEC4
:0105F1000009
:1005D100EB9FF5F0EA9E42F0E99D42F0E89C45F080
:0105E10022F7
:00000001FF
