:10035F000A493243202753656E64205354412720A6
:10036F006572726F72000A493243202753656E64BB
:10037F0020534C412B5727206572726F72000A4928
:10038F003243202753656E64204932432048696702
:10039F006820427974652041646472657373272005
:1003AF006572726F72000A493243202753656E647B
:1003BF0020493243204C6F77204279746520416485
:1003CF00647265737327206572726F72000A493207
:1003DF0043202753656E6420534C412B52272065D1
:1003EF0072726F72000A49324320274E6F204163A9
:1003FF006B27206572726F72000A493243202752B1
:10040F00656164206461746127206572726F720088
:10041F000A493243202741636B27206572726F723E
:10042F00000A493243202753656E64204869676884
:10043F002062797465206164647265737327206527
:10044F0072726F72000A493243202753656E64201F
:10045F004C6F772062797465206164647265737381
:10046F0027206572726F72000A4932432027577234
:10047F00697465204461746127206572726F720020
:10048F000A493243202757616974205265616479A4
:10049F0027206572726F72000A0A32344C43363469
:1004AF002050616765302057726974652028307855
:1004BF0035352C307841412E2E2E292E2E2E000A26
:1004CF000A32344C43363420506167653020526510
:1004DF0061642E2E2E000A0A32344C4336342050DB
:1004EF006167653120577269746520283078303024
:1004FF002C307846462E2E2E292E2E2E000A0A320A
:10050F00344C433634205061676531205265616445
:10051F002E2E2E000A0A32344C4336342050616797
:10052F0065322057726974652028307841412C302C
:10053F007835352E2E2E292E2E2E000A0A32344CC7
:10054F0043363420506167653220526561642E2E28
:10055F002E000A0A32344C4336342050616765331B
:10056F002057726974652028307846462C307830D1
:10057F00302E2E2E292E2E2E000A0A32344C4336C0
:10058F003420506167653320526561642E2E2E0032
:10059F000A0A32344C4336342050616765323535A0
:1005AF002057726974652028307830462C30784691
:1005BF00302E2E2E292E2E2E000A0A32344C433680
:1005CF0034205061676532353520526561642E2EB7
:1005DF002E000A4E373645303033203C2D2D3E202D
:1005EF0032344C4336342C204932432044656D6FEE
:1005FF0020436F6465207465737420706173732E6C
:03060F002E2E008C
:060CDF0075BE02D2C62220
:020792008D08D0
:10079400EF75F020A4F50B85F00AD2C5C2C330C3AF
:1007A400FDE5BD6408600E75B0787BFF7A03795F60
:1007B40012006580FE75BCA0C2C5C2C330C3FDE58E
:1007C400BD6418600E75B0787BFF7A0379751200EA
:1007D4006580FEE50AF5BCC2C330C3FDE5BD6428EF
:1007E400600E75B0787BFF7A03798D12006580FE08
:1007F400E50BF5BCC2C330C3FDE5BD6428600E75CE
:10080400B0787BFF7A0379B512006580FED2C5C249
:10081400C330C3FDE5BD6410600E75B0787BFF7A0C
:1008240003795F12006580FEC2C575BCA1C2C330E6
:10083400C3FDE5BD6440600E75B0787BFF7A037933
:10084400DC12006580FEE4F509D2C2C2C330C3FDE8
:10085400E5BD6450600E75B0787BFF7A0379F412BD
:10086400006580FEE5BC6508600E75B0787BFF7A94
:1008740004790812006580FE6308FF0509E509C3D1
:10088400942040C5C2C2C2C330C3FDE5BD645860F4
:100894000E75B0787BFF7A04791F12006580FEC262
:0608A400C3D2C420C4FD14
:0108AA00222B
:0208AB008D08B6
:1008AD00EF75F020A4F50B85F00AD2C5C2C330C395
:1008BD00FDE5BD6408600E75B0787BFF7A03795F46
:1008CD0012006580FEC2C575BCA0C2C330C3FDE574
:1008DD00BD6418600E75B0787BFF7A0379751200D0
:1008ED006580FEE50AF5BCC2C330C3FDE5BD6428D5
:1008FD00600E75B0787BFF7A04793012006580FE4A
:10090D00E50BF5BCC2C330C3FDE5BD6428600E75B3
:10091D00B0787BFF7A04795412006580FEE4F50906
:10092D008508BCC2C330C3FDE5BD6428600E75B03B
:10093D00787BFF7A04797712006580FE6308FF05E6
:10094D0009E509C3942040D8D2C4C2C320C4FDD246
:10095D00C5C2C330C3FDE5BD6408600E75B0787BBC
:10096D00FF7A04798F12006580FEC2C575BCA0C2E6
:10097D00C330C3FDE5BDB418CFD2C4C2C320C4FD7E
:01098D002247
:10098E00E4F5B1F5B1F5B3F5B4F5B5F5B6F5ACF5ED
:10099E00ADFF7EC27D01FC120A56120CDF7BFF7A80
:1009AE000479A71200657D55E4FF1208AB7BFF7A30
:1009BE000479CE1200657D55E4FF1207927BFF7A13
:1009CE000479E5120065E4FD7F011208AB7BFF7A26
:1009DE0005790C120065E4FD7F011207927BFF7A08
:1009EE000579231200657DAA7F021208AB7BFF7A80
:1009FE0005794A1200657DAA7F021207927BFF7A63
:100A0E000579611200657DFF7F031208AB7BFF7ACB
:100A1E000579881200657DFF7F031207927BFF7AAE
:100A2E0005799F1200657D0F7FFF1208AB7BFF7A61
:100A3E000579C81200657D0F7FFF1207927BFF7A42
:080A4E000579E112006580FE4C
:100C3300759852438920438780438E1053C4DFAB9A
:100C430007AA06A905A8047F407E427D0F7C0012F7
:0A0C5300064EEFF404F58DD28E2258
:100A56008F0B8E0A8D098C0875985243878053C474
:100A6600F843C420AB0BAA0AA909A8087F407E4216
:100A76007D0F7C0012064EC3E49FFFE49EFE7401C8
:100A86009DFDE49CFC78081206F18FC6AB0BAA0A02
:100A9600A909A8087F407E427D0F7C0012064EC33E
:090AA600E49FFF8FC543C4082240
:070CBF003098FDAF99C298C7
:010CC600220B
:080CC700C2998F993099FD22BA
:100AAF008F258E248D238C2275F85253C4F8AB25D5
:100ABF00AA24A923A8227F407E427D0F7C00120624
:100ACF004EC3E49FFFE49EFE74019DFDE49CFC7801
:100ADF00081206F18FC6AB25AA24A923A8227F40AE
:100AEF007E427D0F7C0012064EC3E49FFF8FC543ED
:030AFF00C4082206
:070CCF0030F8FDAF9AC2F8F6
:010CD60022FB
:080CD700C2F98F9A30F9FD22E9
:100C8400538EF7438901D28CEF4E6012758AF37547
:100C94008CFF308DFDC28DEF1F70ED1E80EAC28C7B
:010CA400222D
:100B9D008F298E288D278C26538EF7438901D28C71
:100BAD00E4FFFEFDFCAB29AA28A927A826C312063F
:100BBD00E06025758ACA758CFA308DFDC28DE529E8
:100BCD0024FFF529E52834FFF528E52734FFF5271F
:0B0BDD00E52634FFF52680C8C28C22FC
:100BE8008F2D8E2C8D2B8C2A538EEF438910D28E0D
:100BF800E4FFFEFDFCAB2DAA2CA92BA82AC31206E4
:100C0800E06025758BCA758DFA308FFDC28FE52D92
:100C180024FFF52DE52C34FFF52CE52B34FFF52BBF
:0B0C2800E52A34FFF52A80C8C28E22A6
:100B02008F318E308D2F8C2E53C9BF53C9DF43C90D
:100B120010D2CAE4FFFEFDFCAB31AA30A92FA82EE9
:100B2200C31206E0602575CC6075CDF030CFFDC2F2
:100B3200CFE53124FFF531E53034FFF530E52F34D0
:0E0B4200FFF52FE52E34FFF52E80C8C2CA2223
:100B50008F358E348D338C3275C40243C408E4FF64
:100B6000FEFDFCAB35AA34A933A832C31206E060FF
:100B70002875C56075C6F0E5C430E4FB53C4EFE5E5
:100B80003524FFF535E53434FFF534E53334FFF52E
:0D0B900033E53234FFF53280C553C4F7223F
:03000000020CA54A
:100CA500787FE4F6D8FD9000007FFF7E01E4F0A395
:0A0CB500DFFCDEFA75813502098EBE
:1006120075F008758200EF2FFFEE33FECD33CDCC9F
:1006220033CCC58233C5829BED9AEC99E582984022
:100632000CF582EE9BFEED9AFDEC99FC0FD5F0D6FF
:10064200E4CEFBE4CDFAE4CCF9A88222B800C1B929
:100652000059BA002DEC8BF084CFCECDFCE5F0CB67
:10066200F97818EF2FFFEE33FEED33FDEC33FCEBA0
:1006720033FB10D703994004EB99FB0FD8E5E4F95B
:10068200FA227818EF2FFFEE33FEED33FDEC33FC48
:10069200C933C910D7059BE99A4007EC9BFCE99A3C
:1006A200F90FD8E0E4C9FAE4CCFB2275F010EF2F81
:1006B200FFEE33FEED33FDCC33CCC833C810D70781
:1006C2009BEC9AE899400AED9BFDEC9AFCE899F8BC
:0E06D2000FD5F0DAE4CDFBE4CCFAE4C8F9224F
:1006E000EB9FF5F0EA9E42F0E99D42F0E89C45F070
:0106F00022E7
:1006F100E8600FECC313FCED13FDEE13FEEF13FFE7
:03070100D8F1220A
:10000300E51B240FF8E6051B22780C300702780F56
:10001300E475F00112075C0207042000EB7F2ED287
:10002300008018EF540F2490D43440D4FF30040BD5
:10003300EF24BFB41A0050032461FFE51C600215CE
:100043001C051FE51F7002051E30070D780CE475B3
:10005300F00112075CEF02074A020C5D7403D2073A
:100063008003E4C207F51B8B0C8A0D890EE4F51C93
:10007300F51EF51FE51C60077F2012003E80F57515
:100083001DFFC201C200C202C203C205C206C208EA
:1000930012000CFF700D3007057F0012004FAF1FD9
:1000A300AE1E22B4255FC2D5C20412000CFF24D0B9
:1000B300B40A00501A75F00A781C30D50508B6FF4B
:1000C3000106C6A426F620D5047002D20380D924E3
:1000D300CFB41A00EF5004C2E5D20402024FD2019A
:1000E30080C6D20080C0D20280BCD2D580BAD205ED
:1000F30080B47F2012003E2002077401B51C00402B
:10010300F1120003FF12003E020077D208D20680EC
:1001130095120003FB120003FA120003F94A4B7015
:100123000679207A037BFF20022EE51C602A7E00DD
:100133008E8275830012071D60060EEE651D70F03A
:10014300C2D5EBC0E0EAC0E0E9C0E0EE120296D00F
:10015300E0F9D0E0FAD0E0FB120704FF60AAEBC09D
:10016300E0EAC0E0E9C0E012003ED0E02401F9D0AB
:10017300E03400FAD0E0FBE51D0460DCD51DD98036
:10018300877BFF7A027992D202809C791080027970
:1001930008C206C2088008D2D5790A8004790AC247
:1001A300D5E51D047002F51DE4FAFDFEFF12000300
:1001B300FC7B08200113120003FD7B1030000A12A0
:1001C3000003FE120003FF7B20EC3382D592D5504F
:1001D30013C3E43000069FFFE49EFEE42001039D69
:1001E300FDE49CFCE4CBF8C201EC700CCFCECDCC8B
:1001F300E824F8F870F38017C3EF33FFEE33FEED16
:1002030033FDEC33FCEB33FB994002FB0FD8E9EBF6
:10021300300105F8D0E0C448B201C0E00AEC4D4E0D
:100223004F78207B0070C2EAB51D0040BCC0E012CD
:100233000298D0F0D0E0200104C4C0E0C4B201C0F1
:10024300F0120027D0F0D5F0EB02007712076C0113
:100253001453018E5800E54C00E14201924F019A7C
:0F02630044019A4900FA4301A0550184460184E1
:100272004501844703405000E92D00ED2E01102B6B
:1002820000F123010E2003292A00A94800000108D9
:100292003F3F3F00790AA2D5200314300509B91067
:1002A200020404B9080104A2D52006025001042068
:1002B20002689202B51C005034C0E07F203003195E
:1002C2007F30A20272067205500F1202EFC202C202
:1002D20006C205C2087F30800F300503E9C0E01274
:1002E200003E300503D0E0F9D0E0B51CCC30051754
:1002F2007F30B9100C12003E7F583004077F78809F
:1003020003B9080312003E3002057F2D02003E7F32
:10031200202008F87F2B2006F322920280CF286E3D
:10032200756C6C2900D2011200033001F8C2017809
:100332001C30D50108F60200A92D5043495812007D
:10034200032403B405004001E490033B9312002F01
:0D035200743A12002FD203751C0402018EB4
:10070400BB010689828A83E0225002E722BBFE02F3
:09071400E32289828A83E4932226
:10071D00BB010CE58229F582E5833AF583E0225091
:10072D0006E92582F8E622BBFE06E92582F8E222DB
:0D073D00E58229F582E5833AF583E49322F5
:10074A00BB010689828A83F0225002F722BBFE018E
:02075A00F32288
:10075C00FAE6FB0808E6F925F0F618E6CA3AF6229E
:10076C00D083D082F8E4937012740193700DA3A31C
:10077C0093F8740193F5828883E473740293686030
:06078C00EFA3A3A380DF30
:100C5D00EFB40A07740D120C68740A309811A89934
:100C6D00B8130CC2983098FDA899C298B811F630F7
:070C7D0099FDC299F59922CF
:00000001FF
