:100889000A535049206572726F722E0A000A536C1E
:100899006176652052657475726E202563210A00A0
:1008A9000A2A3D3D3D3D3D3D3D3D3D3D3D3D3D3DB5
:1008B9003D3D3D3D3D3D3D3D3D3D3D3D3D3D3D3D5F
:1008C9003D3D3D3D3D3D3D3D3D3D3D3D3D3D3D3D4F
:1008D9003D3D3D3D3D3D3D3D3D3D3D3D3D3D3D3D3F
:1008E9003D3D3D3D3D000A2A20204E616D653A207F
:1008F9004E37364538383520535049204D61737489
:10090900657228496E746572727570742920446520
:100919006D6F20436F64652E000A5350492053744C
:10092900617274205472616E736D69742E2E2E0A71
:10093900000A5350492054657374204F4B210A0013
:100E05007BFF7A0879891200B0D2877FF47E017D55
:100E1500007C00120C6EC2877FF47E017D007C0091
:050E2500120C6E80E4D8
:06004500439B40D2AF22F4
:070EB10053F3FE53F3FD2291
:100D040053B1EF53B2EF53B1DF53B2DF53B5FD53D9
:100D1400B6FD53B5FB53B6FB43F40853F37F53F3CB
:100D2400DF53F3F743F30443F310120EB1120045FB
:040D340043F3402223
:1007BD008B248A258926C28475F590438701E5F53A
:1007CD00644E6003120E057BFF7A08799685F52D30
:1007DD001200B075F501438701E5F564556003120C
:1007ED000E057BFF7A08799685F52D1200B075F50B
:1007FD0002438701E5F564566003120E057BFF7A0F
:10080D0008799685F52D1200B075F503438701E53E
:10081D00F5644F6003120E057BFF7A08799685F516
:10082D002D1200B075F504438701E5F5645460039E
:10083D00120E057BFF7A08799685F52D1200B0759D
:10084D00F54F438701AB24AA25A926E5F51203AA86
:10085D007BFF7A08799685F52D1200B075F54E431C
:10086D008701AB27AA28A929E5F51203AA7BFF7AF0
:0C087D0008799685F52D1200B0D2842277
:10094900120E7F7F807E257D007C00120DB6120A73
:10095900D67BFF7A0879A91200B07BFF7A0879EF74
:100969001200B07BFF7A0879A91200B0120D047B3E
:10097900FF7A0979221200B07527007528007529B8
:10098900237B007A0079221207BDE522644F6009B2
:10099900E523644E6003120E057BFF7A09793A124A
:1009A90000B0D2827FF47E017D007C00120C6EC201
:0E09B900827FF47E017D007C00120C6E80E4D3
:03004B00020003AD
:10000300C0E0C0F0C083C082C0D075D000C000C0C3
:1000130001C002C003C004C005C006C00753F47F7B
:100023007F017E00120E2AD007D006D005D004D05F
:1000330003D002D001D000D0D0D082D083D0F0D072
:02004300E032A9
:10056800EF14604314700302062B1470030206672D
:10057800146061240460030206A5A2AF9209C2AF09
:1005880075C7AA75C755439780A20992AFA2AF92C3
:1005980009C2AF75C7AA75C7555397BFA20992AFCD
:1005A800E59630E7FB8058A2AF9209C2AF75C7AA9B
:1005B80075C75553977FA20992AFA2AF9209C2AFF0
:1005C80075C7AA75C755439740A20992AFE59630FB
:1005D800E6FB802BA2AF9209C2AF75C7AA75C755B3
:1005E80053977FA20992AFA2AF9209C2AF75C7AA6B
:1005F80075C7555397BFA20992AFE59630E3FBA2A2
:10060800AF9209C2AF75C7AA75C7555396FBA20921
:1006180092AFA2AF9209C2AF75C7AA75C7554396E4
:10062800028076A2AF9209C2AF75C7AA75C75543B3
:100638009720A20992AFE59630E5FBA2AF9209C2D6
:10064800AF75C7AA75C7555396FBA20992AFA2AF5B
:100658009209C2AF75C7AA75C7555396FD803AA2CD
:10066800AF9209C2AF75C7AA75C755439710A209BB
:1006780092AFE59630E4FBA2AF9209C2AF75C7AA64
:1006880075C755439604A20992AFA2AF9209C2AFAB
:1006980075C7AA75C7555396FDA20992AFE597206D
:0306A800E0FB2252
:100DB60075985243892053877F538EEF53C4DFAB18
:100DC60007AA06A905A804E4FF7EE1FDFC1203F8C4
:080DD600EFF404F58DD28E222A
:100D3800759852438920438780538EEF53C4DFABA5
:100D480007AA06A905A8047F007EC27D017C0012BF
:0A0D580003F8EFF404F58DD28E22AB
:100D620075985243892053877F438E1053C4DFAB5B
:100D720007AA06A905A8047F007E8C7D0A7C0012C2
:0A0D820003F8EFF404F58DD28E2281
:100D8C00759852438920438780438E1053C4DFAB40
:100D9C0007AA06A905A8047F007E187D157C001201
:0A0DAC0003F8EFF404F58DD28E2257
:100A24008F0B8E0A8D098C0875985253877F53C497
:100A3400F843C420AB0BAA0AA909A8087F007E8C3E
:100A44007D0A7C001203F8C3E49FFFE49EFE740158
:100A54009DFDE49CFC780812049B8FC6AB0BAA0A8C
:100A6400A909A8087F007E8C7D0A7C001203F8C3C4
:090A7400E49FFF8FC543C4082272
:100A7D008F0F8E0E8D0D8C0C75985243878053C43D
:100A8D00F843C420AB0FAA0EA90DA80C7F007E1849
:100A9D007D157C001203F8C3E49FFFE49EFE7401F4
:100AAD009DFDE49CFC780812049B8FC6AB0FAA0E2B
:100ABD00A90DA80C7F007E187D157C001203F8C3CC
:090ACD00E49FFF8FC543C4082219
:100B2D008F138E128D118C1075F85253C4F8AB13B0
:100B3D00AA12A911A8107F007E187D157C00120342
:100B4D00F8C3E49FFFE49EFE74019DFDE49CFC78D8
:100B5D000812049B8FC6AB13AA12A911A8107F000F
:100B6D007E187D157C001203F8C3E49FFF8FC543EB
:030B7D00C4082287
:070E91003098FDAF99C298F3
:010E98002237
:080E9900C2998F993099FD22E6
:070EA10030F8FDAF9AC2F822
:010EA8002227
:080EA900C2F98F9A30F9FD2215
:100E7F00E4F5B1F5B2F5B3F5B4F5B5F5B6F5ACF5F6
:020E8F00AD2292
:100E4B0075C7AA75C755A2AF9209C2AF75C7AA7568
:0A0E5B00C755439F80A20992AF2201
:040EB80043B4082215
:0609C700E54224F8F542B0
:1009CD00F81204D300000000E47FFF7EFFFDFCA8B9
:1009DD00421204BAC312048A5036E5422404F812B6
:1009ED0004AEEF2401FFE43EFEE43DFDE43CFCE5F6
:1009FD00422404F81204C7A8421204AEEF2401FFEA
:100A0D00E43EFEE43DFDE43CFCA8421204C780B880
:070A1D00E5422408F5422226
:100E2A00538EF7438901D28CEF4E6012758AEE75A4
:100E3A008CFF308DFDC28DEF1F70ED1E80EAC28CD3
:010E4A002285
:100C6E008F2D8E2C8D2B8C2A538EF7438901D28C8F
:100C7E00E4FFFEFDFCAB2DAA2CA92BA82AC312045F
:100C8E008A6025758ACD758CF8308DFDC28DE52D67
:100C9E0024FFF52DE52C34FFF52CE52B34FFF52B39
:0B0CAE00E52A34FFF52A80C8C28C2222
:100CB9008F178E168D158C14538EEF438910D28E93
:100CC900E4FFFEFDFCAB17AA16A915A814C312046C
:100CD9008A6025758BCD758DF8308FFDC28FE5172C
:100CE90024FFF517E51634FFF516E51534FFF5155C
:0B0CF900E51434FFF51480C8C28E2201
:100BD3008F1B8E1A8D198C1853C9BF53C9DF43C994
:100BE30010D2CAE4FFFEFDFCAB1BAA1AA919A81870
:100BF300C312048A602575CC6675CDEA30CFFDC279
:100C0300CFE51B24FFF51BE51A34FFF51AE519346C
:0E0C1300FFF519E51834FFF51880C8C2CA2293
:100C21008F1F8E1E8D1D8C1C75C40243C408E4FFEA
:100C3100FEFDFCAB1FAA1EA91DA81CC312048A60DD
:100C41002875C56675C6EAE5C430E4FB53C4EFE513
:100C51001F24FFF51FE51E34FFF51EE51D34FFF5CA
:0D0C61001DE51C34FFF51C80C553C4F722AF
:100B80008F418E408D3F8C3E538FFB538FFD538F93
:100B9000FEE4F586538FDF438F08E4FFFEFDFCABD8
:100BA00041AA40A93FA83EC312048A6022E58F30C3
:100BB000E4FB538FEFE54124FFF541E54034FFF5B9
:100BC00040E53F34FFF53FE53E34FFF53E80CB5333
:030BD0008FF7227A
:1006AB000A3D3D3D3D3D3D3D3D3D3D3D3D3D3D3DA2
:1006BB003D3D3D3D3D3D3D3D3D3D3D3D3D3D3D3D5F
:1006CB003D3D3D3D3D3D3D3D3D3D3D3D3D3D3D3D4F
:1006DB003D3D3D3D3D3D3D3D3D3D3D3D3D3D3D3D3F
:1006EB003D3D3D3D3D000A2A2020436F70797269E4
:1006FB006768742863292032303134204E75766F49
:10070B00746F6E20546563686E6F6C6F67792043EE
:10071B006F72702E20416C6C207269676874732045
:10072B0072657365727665642E2020000A2A20207C
:10073B00436F6E7461637420452D4D61696C3A2073
:10074B004D6963726F432D38626974406E75766FB5
:10075B00746F6E2E636F6D202020202020202020B0
:10076B00202020202020202020202020202020207E
:10077B0020000A2A202044656D6F2056657273692C
:10078B006F6E20203A202532642E2532642E2532BE
:10079B0064000A2A202046696E69736865642044E8
:1007AB00617465203A202532642E2532642E253261
:0207BB006400D8
:100AD6007BFF7A0679AB1200B07BFF7A0679F112BA
:100AE60000B07BFF7A0779371200B07BFF7A07796F
:100AF6007D752D00752E01E4F52FF530F531F532B3
:100B06001200B07BFF7A07799D752D07752EDE756D
:100B16002F007530077531007532011200B07BFF6A
:070B26007A0679AB0200B072
:03000000020E6588
:100E6500787FE4F6D8FD9000007FFF7E01E4F0A3D3
:0A0E7500DFFCDEFA75814202094934
:1003AA00BB010689828A83F0225002F722BBFE0132
:0203BA00F3222C
:1003BC0075F008758200EF2FFFEE33FECD33CDCCF8
:1003CC0033CCC58233C5829BED9AEC99E58298407B
:1003DC000CF582EE9BFEED9AFDEC99FC0FD5F0D658
:1003EC00E4CEFBE4CDFAE4CCF9A88222B800C1B982
:1003FC000059BA002DEC8BF084CFCECDFCE5F0CBC0
:10040C00F97818EF2FFFEE33FEED33FDEC33FCEBF8
:10041C0033FB10D703994004EB99FB0FD8E5E4F9B3
:10042C00FA227818EF2FFFEE33FEED33FDEC33FCA0
:10043C00C933C910D7059BE99A4007EC9BFCE99A94
:10044C00F90FD8E0E4C9FAE4CCFB2275F010EF2FD9
:10045C00FFEE33FEED33FDCC33CCC833C810D707D9
:10046C009BEC9AE899400AED9BFDEC9AFCE899F814
:0E047C000FD5F0DAE4CDFBE4CCFAE4C8F922A7
:10048A00EB9FF5F0EA9E42F0E99D42F0E89C45F0C8
:01049A00223F
:10049B00E8600FECC313FCED13FDEE13FEEF13FF3F
:0304AB00D8F12263
:0C04AE00E6FC08E6FD08E6FE08E6FF227A
:0D04BA00E6FB08E6F908E6FA08E6CBF822B2
:0C04C700ECF608EDF608EEF608EFF62261
:1004D300D083D082E493F608740193F608740293F0
:0904E300F608740393F674047327
:10004E00E539242DF8E6053922782A300702782D75
:10005E00E475F0011205320204EC2000EB7F2ED283
:10006E00008018EF540F2490D43440D4FF30040B8A
:10007E00EF24BFB41A0050032461FFE53A60021565
:10008E003A053DE53D7002053C30070D782AE475D2
:10009E00F001120532EF0203AA020DDE7403D2073D
:1000AE008003E4C207F5398B2A8A2B892CE4F53AB2
:1000BE00F53CF53DE53A60077F2012008980F57525
:1000CE003BFFC201C200C202C203C205C206C20881
:1000DE00120057FF700D3007057F0012009AAF3DDA
:1000EE00AE3C22B4255FC2D5C204120057FF24D005
:1000FE00B40A00501A75F00A783A30D50508B6FFE2
:10010E000106C6A426F620D5047002D20380D92497
:10011E00CFB41A00EF5004C2E5D20402029AD20103
:10012E0080C6D20080C0D20280BCD2D580BAD205A1
:10013E0080B47F201200892002077401B53A004076
:10014E00F112004EFF1200890200C2D208D20680C0
:10015E009512004EFB12004EFA12004EF94A4B70E9
:10016E0006796B7A037BFF20022EE53A602A7E0029
:10017E008E8275830012050560060EEE653B70F0EB
:10018E00C2D5EBC0E0EAC0E0E9C0E0EE1202E1D079
:10019E00E0F9D0E0FAD0E0FB1204ECFF60AAEBC06D
:1001AE00E0EAC0E0E9C0E0120089D0E02401F9D015
:1001BE00E03400FAD0E0FBE53B0460DCD53BD980AF
:1001CE00877BFF7A0279DDD202809C7910800279DA
:1001DE0008C206C2088008D2D5790A8004790AC2FC
:1001EE00D5E53B047002F53BE4FAFDFEFF12004E2E
:1001FE00FC7B0820011312004EFD7B1030000A120A
:10020E00004EFE12004EFF7B20EC3382D592D5506D
:10021E0013C3E43000069FFFE49EFEE42001039D1D
:10022E00FDE49CFCE4CBF8C201EC700CCFCECDCC3F
:10023E00E824F8F870F38017C3EF33FFEE33FEEDCA
:10024E0033FDEC33FCEB33FB994002FB0FD8E9EBAB
:10025E00300105F8D0E0C448B201C0E00AEC4D4EC2
:10026E004F78207B0070C2EAB53B0040BCC0E01264
:10027E0002E3D0F0D0E0200104C4C0E0C4B201C05B
:10028E00F0120072D0F0D5F0EB0200C2120542015E
:10029E005F5301D95801304C012C4201DD4F01E56D
:0F02AE004401E54901454301EB5501CF4601CF1E
:1002BD004501CF47038B5001342D01382E015B2BA7
:1002CD00013C2301592003742A00F4480000015316
:1002DD003F3F3F00790AA2D5200314300509B9101C
:1002ED00020404B9080104A2D5200602500104201D
:1002FD0002689202B53A005034C0E07F20300319F5
:10030D007F30A20272067205500F12033AC202C26A
:10031D0006C205C2087F30800F300503E9C0E01228
:10032D000089300503D0E0F9D0E0B53ACC3005179F
:10033D007F30B9100C1200897F583004077F788008
:10034D0003B908031200893002057F2D0200897F51
:10035D00202008F87F2B2006F322920280CF286EF2
:10036D00756C6C2900D20112004E3001F8C2017873
:10037D003A30D50108F60200F42D504349581200C9
:10038D004E2403B405004001E49003869312007AD5
:0D039D00743A12007AD203753A040201D9B5
:1004EC00BB010689828A83E0225002E722BBFE020E
:0904FC00E32289828A83E4932241
:10050500BB010CE58229F582E5833AF583E02250AB
:1005150006E92582F8E622BBFE06E92582F8E222F5
:0D052500E58229F582E5833AF583E493220F
:10053200FAE6FB0808E6F925F0F618E6CA3AF622CA
:10054200D083D082F8E4937012740193700DA3A348
:1005520093F8740193F5828883E47374029368605C
:06056200EFA3A3A380DF5C
:100DDE00EFB40A07740D120DE9740A309811A89930
:100DEE00B8130CC2983098FDA899C298B811F63075
:070DFE0099FDC299F599224D
:00000001FF
