:03000B00020003ED
:03000300B2923284
:03001B00020006DA
:03000600B2833290
:1000BA00E4F5B1F5B1F5B3F5B4F5ACF5AD53890F87
:1000CA004389205389F0438902758CCE758ACE758F
:1000DA008DCE758BCED2A9D2ABD2AFD28CD28E8036
:0100EA00FE17
:0300000002001EDD
:10001E0075C7AA75C755439F0175AF0475A6307590
:10002E00A70075C7AA75C75543A401AAAE75A63118
:10003E0075C7AA75C75543A401ABAE75A63275C771
:10004E00AA75C75543A401ACAE75A63375C7AA757C
:10005E00C75543A401ADAE75C7AA75C755539FFECC
:10006E0075C7AA75C75575910175C7AA75C7558A03
:10007E008475C7AA75C7558B8575C7AA75C7558C64
:10008E00EF75C7AA75C7558DF775C7AA75C755758C
:10009E009100787FE4F6D8FD9000007FFF7E01E4AA
:0C00AE00F0A3DFFCDEFA7581070200BA47
:00000001FF
