:03000B00020003ED
:06000300758ACEB29232B4
:03001B0002000ED2
:06000E00758C9CB29132DA
:1001EB00E4F5B1F5B1F5B3F5B4F5ACF5AD53890F55
:1001FB0043893F5389F04389F3758C9C758ACEF5FF
:10020B008DF58BD2A9D2ABD2AFD28CD28E858D90FD
:05021B00858BA080F8B6
:10022000538EF7438901D28CEF4E6012758AF375B5
:100230008CFF308DFDC28DEF1F70ED1E80EAC28CE9
:01024000229B
:100155008F0B8E0A8D098C08538EF7438901D28C3B
:10016500E4FFFEFDFCAB0BAA0AA909A808C312020D
:10017500416025758ACA758CFA308DFDC28DE50BF7
:1001850024FFF50BE50A34FFF50AE50934FFF50907
:0B019500E50834FFF50880C8C28C228A
:1001A0008F0F8E0E8D0D8C0C538EEF438910D28ED7
:1001B000E4FFFEFDFCAB0FAA0EA90DA80CC31202B2
:1001C000416025758BCA758DFA308FFDC28FE50FA2
:1001D00024FFF50FE50E34FFF50EE50D34FFF50DA8
:0B01E000E50C34FFF50C80C8C28E2235
:1000BA008F138E128D118C1053C9BF53C9DF43C9D8
:1000CA0010D2CAE4FFFEFDFCAB13AA12A911A810B4
:1000DA00C3120241602575CC6075CDF030CFFDC2E8
:1000EA00CFE51324FFF513E51234FFF512E51134B9
:0E00FA00FFF511E51034FFF51080C8C2CA22D0
:100108008F178E168D158C1475C40243C408E4FF2E
:10011800FEFDFCAB17AA16A915A814C3120241606C
:100128002875C56075C6F0E5C430E4FB53C4EFE537
:100138001724FFF517E51634FFF516E51534FFF516
:0D01480015E51434FFF51480C553C4F722EB
:0300000002001EDD
:10001E0075C7AA75C755439F0175AF0475A6307590
:10002E00A70075C7AA75C75543A401AAAE75A63118
:10003E0075C7AA75C75543A401ABAE75A63275C771
:10004E00AA75C75543A401ACAE75A63375C7AA757C
:10005E00C75543A401ADAE75C7AA75C755539FFECC
:10006E0075C7AA75C75575910175C7AA75C7558A03
:10007E008475C7AA75C7558B8575C7AA75C7558C64
:10008E00EF75C7AA75C7558DF775C7AA75C755758C
:10009E009100787FE4F6D8FD9000007FFF7E01E4AA
:0C00AE00F0A3DFFCDEFA7581200201EBFC
:10024100EB9FF5F0EA9E42F0E99D42F0E89C45F013
:01025100228A
:00000001FF
