:1004EA00EF4E6015E4FDFC0DBD00010CBC38F8BDF3
:0904FA0054F5EF1F70EA1E80E7C3
:0105030022D5
:0E054A00E4F5B1F5B1F5B3F5B4F5ACF5AD22BD
:1004A40012054A12053B7F027E001204EAD2AFD243
:1004B4008C7F057E001204EAD294D2833094FD30FE
:0704C40083FA12001E80F50F
:0F053B0012000E12035F120517120529020504A4
:0D000E007596307597307F027E000204EA7F
:10035F0053B1FE43B20153B1FD43B20253B1F74360
:10036F00B20843B11053B2EF43B12053B2DF43B1E0
:10037F004053B2BF43B18053B27F53B3FE43B40176
:10038F0053B3FD43B40253B3FB43B40453B3F74326
:10039F00B40853B3EF43B41043B38053B47F53AC9B
:1003AF00FE43AD01C2B0C294C283C291C293C29246
:0703BF00C280C281C290223E
:0304CB000111001C
:0D055800E4FFC2EFD2EE30EFFDAFC305119E
:010565002273
:1005040053E8F043B38053B47FE4F5F643F6014374
:03051400E10122E0
:0704CE00C100C10101120091
:10001E00E4F50CF50DF50E7F01FE1204EA20872A99
:10002E003086273085247F017E001204EA050D20DC
:10003E0087063086032085EEE50DD39414400B75AC
:10004E000E01AF0E1203C6E4F50D20872A20862777
:10005E003085247F017E001204EA050D20870620DC
:10006E0086032085EEE50DD39414400B750E02AF7A
:10007E000E1203C6E4F50D20872A3086272085242C
:10008E007F017E001204EA050D20870630860330BC
:10009E0085EEE50DD39414400B750E03AF0E1203CF
:1000AE00C6E4F50D30872A2086273085247F017E11
:1000BE00001204EA050D3087062086032085EEE542
:1000CE000DD39414400B750E04AF0E1203C6E4F557
:1000DE000D30872A3086272085247F017E0012046A
:1000EE00EA050D3087063086033085EEE50DD39494
:1000FE0014400B750E05AF0E1203C6E4F50D3087D6
:10010E002A2086272085247F017E001204EA050D11
:10011E003087062086033085EEE50DD39414400B10
:10012E00750E06AF0E1203C6E4F50D200204C2B022
:10013E00801B208416C2B07F067E001204EAD2B065
:10014E007F0C7E001204EAC2B08002D2B030840767
:10015E00C200C205C20122200004D28ED200300598
:10016E0012D28E0512C205E512D3940F4005D201AC
:10017E00E4F512300116C201C2837F327E001204F2
:0C018E00EAC2B0C294C2AF43870280FBFB
:01019A002242
:1003C600EF24FE601C14602514602E146037146040
:1003D6004024057047D2917F197E001204EAC2912B
:1003E60022D2937F197E001204EAC29322D2927F10
:1003F600197E001204EAC29222D2807F197E001270
:1004060004EAC28022D2817F197E001204EAC281E8
:0D04160022D2907F197E001204EAC29022CB
:0E04D50002090000010B00C103C10201080072
:10051700538EF753890F438910758CCB758AEAD2AE
:02052700A92207
:03000B000202B737
:1002B700C0E0C0F0C083C082C0D075D000C000C00D
:1002C70001C002C003C004C005C006C007C28C75C8
:1002D7008CEA758AEA0508E508D39405405D12059E
:1002E70058EF250AF50AE43509F509E511B4641F45
:1002F700AE09AF0A7C007D641204238F0B751100D1
:10030700D203AFC27509008F0A750900750A00305C
:100317000326E50BC394545012C283C2B07F327ECA
:10032700001204EAC29443870280FBE50BC3945989
:100337005004C2028002D202750800D28CD007D0C6
:1003470006D005D004D003D002D001D000D0D0D041
:0803570082D083D0F0D0E03227
:0604E300C105020F00003C
:10052900538EEF5389F0438901758DCB758BEAD2D0
:02053900AB22F3
:03001B0002047864
:10047800C0E0C0D0C28E758DCB758BEA0510E51033
:100488007002050FD39470E50F94174008D20575D4
:0C0498000F00751000D28ED0D0D0E032E2
:0300000002019B5F
:10019B0075C7AA75C755439F0175AF0475A6307512
:1001AB00A70075C7AA75C75543A401AAAE75A6319A
:1001BB0075C7AA75C75543A401ABAE75A63275C7F3
:1001CB00AA75C75543A401ACAE75A63375C7AA75FE
:1001DB00C75543A401ADAE75C7AA75C755539FFE4E
:1001EB0075C7AA75C75575910175C7AA75C7558A85
:1001FB008475C7AA75C7558B8575C7AA75C7558CE6
:10020B00EF75C7AA75C7558DF775C7AA75C755750D
:10021B009100787FE4F6D8FD9000007FFF7E01E42B
:0C022B00F0A3DFFCDEFA758120020272F5
:100237000204A4E493A3F8E493A34003F68001F235
:1002470008DFF48029E493A3F85407240CC8C333C8
:10025700C4540F4420C8834004F456800146F6DF97
:10026700E4800B01020408102040809004CBE47E58
:10027700019360BCA3FF543F30E509541FFEE4938C
:10028700A360010ECF54C025E060A840B8E493A353
:10029700FAE493A3F8E493A3C8C582C8CAC583CA7E
:1002A700F0A3C8C582C8CAC583CADFE9DEE780BE36
:0104E9000012
:10042300BC000BBE0029EF8DF084FFADF022E4CCBD
:10043300F875F008EF2FFFEE33FEEC33FCEE9DEC86
:10044300984005FCEE9DFE0FD5F0E9E4CEFD22EDCC
:10045300F8F5F0EE8420D21CFEADF075F008EF2F16
:10046300FFED33FD4007985006D5F0F222C398FD07
:050473000FD5F0EA22A4
:00000001FF
