:1003BA00C2837F647E007D007C0012031FD2837F8C
:0C03CA00647E007D007C0012031F80E4B4
:10036A00A2AF9200C2AF75C7AA75C75543A401A22E
:10037A000092AFE59F30E616A2AF9200C2AF75C7F2
:0F038A00AA75C755539FBFA20092AF1203BA22A4
:10000300A2AF9200C2AF75C7AA75C755439F01A29D
:100013000092AF75AEFF75AF22A2AF9200C2AF756B
:10002300C7AA75C75543A501A20092AFE4F508F529
:1000330009E50975F080A4F5A6E509AE087807C3BC
:1000430033CE33CED8F92400EE3438F5A712036A41
:100053000509E50970020508C39420E508940040EA
:10006300D0A2AF9200C2AF75C7AA75C75553A5FEFC
:10007300A20092AFA2AF9200C2AF75C7AA75C755CF
:07008300539FFEA20092AFA3
:01008A002253
:10018500A2AF9200C2AF75C7AA75C755439F01A21A
:100195000092AFE4F5A675A738F5AFF508F509E4C3
:1001A500F5AE12036AE5AEF460031203BA05A6E5DF
:1001B500A6700205A70509E50970020508C3942084
:1001C500E508940040D9A2AF9200C2AF75C7AA75E1
:0901D500C755539FFEA20092AF32
:0101DE0022FE
:10010F00A2AF9200C2AF75C7AA75C755439F01A290
:10011F000092AFA2AF9200C2AF75C7AA75C7554381
:10012F00A501A20092AFE4F5A675A73875AF21F52A
:10013F0008F50905AE12036A05A6E5A6700205A724
:10014F000509E50970020508C3E508941040E4A20B
:10015F00AF9200C2AF75C7AA75C75553A5FEA200CF
:10016F0092AFA2AF9200C2AF75C7AA75C755539F82
:05017F00FEA20092AF9A
:010184002258
:1001DF00A2AF9200C2AF75C7AA75C755439F01A2C0
:1001EF000092AFE4F5A675A738F5AFF50AF508F557
:1001FF000912036AE5AE650A60031203BA05A6E5A4
:10020F00A6700205A7050A0509E50970020508C3CE
:10021F00E508941040DBA2AF9200C2AF75C7AA7574
:09022F00C755539FFEA20092AFD7
:0102380022A3
:10008B00E4F5B1F5B1F5B3F5B4F5B5F5B6F5ACF5F9
:10009B00ADC2927F64FEFDFC1202D4D2927F647ECD
:1000AB00007D007C001202D4C2927F647E007D0032
:1000BB007C001202D4D2927F647E007D007C001201
:1000CB0002D412000312018512010F1201DFC2923A
:1000DB007F647E007D007C001202D4D2927F647E0E
:1000EB00007D007C001202D4C2927F647E007D00F2
:1000FB007C001202D4D2927F647E007D007C0012C1
:04010B0002D480FE9C
:10039900538EF7438901D28CEF4E6012758AF3753B
:1003A9008CFF308DFDC28DEF1F70ED1E80EAC28C6F
:0103B9002221
:1002D4008F0B8E0A8D098C08538EF7438901D28CBB
:1002E400E4FFFEFDFCAB0BAA0AA909A808C312038C
:1002F400D66025758ACA758CFA308DFDC28DE50BE2
:1003040024FFF50BE50A34FFF50AE50934FFF50986
:0B031400E50834FFF50880C8C28C2209
:10031F008F0E8E0D8D0C8C0B538EEF438910D28E5A
:10032F00E4FFFEFDFCAB0EAA0DA90CA80BC3120334
:10033F00D66025758BCA758DFA308FFDC28FE50E8D
:10034F0024FFF50EE50D34FFF50DE50C34FFF50C2C
:0B035F00E50B34FFF50B80C8C28E22B6
:100239008F128E118D108C0F53C9BF53C9DF43C95B
:1002490010D2CAE4FFFEFDFCAB12AA11A910A80F37
:10025900C31203D6602575CC6075CDF030CFFDC2D1
:10026900CFE51224FFF512E51134FFF511E510343D
:0E027900FFF510E50F34FFF50F80C8C2CA2252
:100287008F168E158D148C1375C40243C408E4FFB2
:10029700FEFDFCAB16AA15A914A813C31203D6605A
:1002A7002875C56075C6F0E5C430E4FB53C4EFE5B7
:1002B7001624FFF516E51534FFF515E51434FFF59B
:0D02C70014E51334FFF51380C553C4F7226E
:030000000203E711
:0C03E700787FE4F6D8FD75812002008BC1
:1003D600EB9FF5F0EA9E42F0E99D42F0E89C45F07D
:0103E60022F4
:00000001FF
