:03006B000201BED1
:0501BE00C2DDB2923227
:10015100E4F5B1F5B1F5B3F5B4F5B5F5B6F5ACF532
:10016100AD43DE0443D80153D8FD53D8F343DF0335
:1001710053DFFB75D10375D9FF75D20175DAFF43E2
:0B0181009B08D2AFD2DED2DF80FE224E
:10018C00538EF7438901D28CEF4E6012758AF3754A
:10019C008CFF308DFDC28DEF1F70011E80EAC28C6A
:0101AC002230
:1000BB008F0B8E0A8D098C08538EF7438901D28CD6
:1000CB00E4FFFEFDFCAB0BAA0AA909A808C31201A9
:1000DB00AD6025758ACA758CFA308DFDC28DE50B26
:1000EB0024FFF50BE50A34FFF50AE50934FFF509A2
:0B00FB00E50834FFF50880C8C28C2225
:100106008F0F8E0E8D0D8C0C538EEF438910D28E71
:10011600E4FFFEFDFCAB0FAA0EA90DA80CC312014D
:10012600AD6025758BCA758DFA308FFDC28FE50FD0
:1001360024FFF50FE50E34FFF50EE50D34FFF50D42
:0B014600E50C34FFF50C80C8C28E22CF
:100003008F138E128D118C1053C9BF53C9DF43C98F
:1000130010D2CAE4FFFEFDFCAB13AA12A911A8106B
:10002300C31201AD602575CC6075CDF030CFFDC234
:10003300CFE51324FFF513E51234FFF512E5113470
:0E004300FFF511E51034FFF51080C8C2CA2287
:10006E008F178E168D158C1475C40243C408E4FFC9
:10007E00FEFDFCAB17AA16A915A814C31201AD609C
:10008E002875C56075C6F0E5C430E4FB53C4EFE5D2
:10009E001724FFF517E51634FFF516E51534FFF5B1
:0D00AE0015E51434FFF51480C553C4F72286
:03000000020051AA
:10005100787FE4F6D8FD9000007FFF7E01E4F0A3F5
:0A006100DFFCDEFA75812002015178
:1001AD00EB9FF5F0EA9E42F0E99D42F0E89C45F0A8
:0101BD00221F
:00000001FF
