:020000040000FA
:10000000E80300207501000079010000590100009B
:1000100000000000000000000000000000000000E0
:100020000000000000000000000000007D01000052
:1000300000000000000000007F01000081010000BE
:1000400083010000830100008301000083010000A0
:10005000090D0000910D00008301000083010000E4
:100060008301000083010000830100008301000080
:100070008301000083010000830100008301000070
:10008000090E0000830100008301000083010000CD
:100090008301000083010000830100008301000050
:1000A0008301000083010000830100008301000040
:1000B0008301000083010000830100008301000030
:1000C00000F002F800F038F80CA030C80838241806
:1000D0002D18A246671EAB4654465D46AC4201D180
:1000E00000F02AF87E460F3E0FCCB646012633427A
:1000F00000D0FB1AA246AB463343184770160000E7
:10010000901600000023002400250026103A01D399
:1001100078C1FBD8520700D330C100D50B607047BF
:1001200010B5782902D100F049F810BD002010BDAB
:100130001FB51FBD10B510BD00F0FCFC1146FFF748
:10014000F7FF01F0C5F900F014FD03B4FFF7F2FF6B
:1001500003BC00F019FD000004207146084202D0E3
:10016000EFF3098001E0EFF308807146004A104781
:100170003110000006480047FEE7FEE7FEE7FEE715
:10018000FEE7FEE703480449024A044B70470000BB
:10019000C1000000E8010020E8030020E801002081
:1001A0000FB4054910B503AA029800F097FC10BCE3
:1001B00008BC04B0184700007401002070B5044664
:1001C0000D4621461068C046C0462188090502D563
:1001D0000F4A7A4402E00E4A7A440E322346002146
:1001E000243305E006070009360F965D5E54491C6E
:1001F0000028F7D120780023000705D5702D03D003
:10020000002901D002231132204600F00EFC70BDFF
:10021000EE140000F3B50446002081B020622046B1
:10022000E168884700287AD0252802D06268A16852
:1002300071E0E16820460025884706460020E0611D
:100240000746A0612A2E0AD0304601F02DF9002879
:1002500027D0B8000019303E0090866119E002985E
:10026000BA00121902C8916102902046E1688847DD
:10027000012F064617D1E06900281FDA20208543A8
:100280001CE000980A2180694843009980193038A1
:1002900088612046E1688847064601F005F9002894
:1002A000EFD1012F0AD02E2E08D12046E1688847D1
:1002B0000646202005437F1C022FC3DBA0690028CF
:1002C00003DA4042A06101200543E80701D0102075
:1002D0008543002E23D030464138192803D8012009
:1002E000C00205432036204625603146029A154655
:1002F000FFF716FF00280BD0012806D0ED1DE808F7
:10030000C000083002908AE709E02D1D029586E7BB
:1003100062683046A1689047206A401C7EE7206AE8
:10032000FEBD002203098B422CD3030A8B4211D35A
:1003300000239C464EE003460B433CD40022430876
:100340008B4231D303098B421CD3030A8B4201D366
:1003500094463FE0C3098B4201D3CB01C01A5241FE
:1003600083098B4201D38B01C01A524143098B424E
:1003700001D34B01C01A524103098B4201D30B0137
:10038000C01A5241C3088B4201D3CB00C01A52415C
:1003900083088B4201D38B00C01A524143088B4221
:1003A00001D34B00C01A5241411A00D201465241BA
:1003B000104670475DE0CA0F00D04942031000D3D9
:1003C0004042534000229C4603098B422DD3030A2E
:1003D0008B4212D3FC22890112BA030A8B420CD33E
:1003E000890192118B4208D3890192118B4204D367
:1003F00089013AD0921100E08909C3098B4201D3E7
:10040000CB01C01A524183098B4201D38B01C01A20
:10041000524143098B4201D34B01C01A5241030997
:100420008B4201D30B01C01A5241C3088B4201D346
:10043000CB00C01A524183088B4201D38B00C01AF3
:100440005241D9D243088B4201D34B00C01A5241CA
:10045000411A00D20146634652415B10104601D357
:100460004042002B00D54942704763465B1000D3E1
:10047000404201B50020C046C04602BD70477047EB
:10048000704700000246C80FC00781434B0030B5DB
:100490004B405B009B0D20D01923DB06C9180123BC
:1004A0001B05994220DB0324A40704251346AB4017
:1004B0000BD3002B04D1EB0613409B00E34204D482
:1004C00001246407002312195941FF231B05994297
:1004D0000BD2C9000143500F09E0CB0204D5014300
:1004E0000803024305D0054830BDFF21C905084374
:1004F00030BD084607210905884330BD0000C07F94
:10050000F0B5F94D0C091E092C402E402F468BB03A
:10051000A7437DD0B543FCD0002E7AD0002CFCD070
:100520000D465D40ED0F2543AC1BFF25AD0464195E
:100530000894C502440DC9022143500DDC02044356
:100540000120C00701430443D2020191200C110C89
:1005500000958C46010423468B430A9161460904A9
:10056000E24D8A430991010A7D444919803909788D
:1005700005464D4301266D18F605751B6943C90CE8
:10058000640B891C4C436418B5012C1B250C2E04EC
:10059000B4434C434D43210C691889090591009DD2
:1005A000E90701D00121C90704912C460199670888
:1005B000CD072F434C08059DE10B4D432D0C2946DB
:1005C0006646754302950D4645432E46029D7D1BAA
:1005D000B44100950D465D4301942C0C2F040D464B
:1005E0005543AE462D0C3D43029503947546049C3D
:1005F0002D04641B049406D2029C039D641C0026F7
:1006000075410395029401AC70CC009F7D1B01E005
:100610003EE162E1B4410904009507910194059916
:10062000A4086143090C0C464443650BE7040C46DF
:1006300066467443A646640B3C4303950294744695
:10064000049DE4042C1B049406D2029C039D641CAC
:10065000002675410395029401AC70CC009F7D1B70
:10066000B44101940C465C430095650FE7000C46CD
:100670005443A646640F3C43039502947446049D7C
:10068000E4002C1B049406D2029C039D641C0026EB
:1006900075410395029401AC70CC009F7D1BB44161
:1006A000AE09AF06049DC900AD092F43049DA40601
:1006B000AD060495079D344369180791059DE10B2C
:1006C0004D432D0C29466646754302950D4645431C
:1006D0002E46029D7D1BB44100950D465D4301945D
:1006E0002C0C2F040D465543AE462D0C3D43029570
:1006F00003947546049C2D04641B049406D2029C4A
:10070000039D641C002675410395029401AC70CCD6
:10071000009F7D1BB44101948C050694079C890AB7
:10072000611800950791019C0599A4086143090C83
:100730000D464543680BEF040D46644665436C0B5C
:100740003C43049FED047D1BAC4602D20025641C93
:100750006841009E019D371B85410846584301951D
:100760000C46460FC5005443600F28436546E4001D
:100770002C1B02D20025401C6E41019D3F1AB54141
:100780002846BD09800628438446A009BF064E02BC
:100790000699A40676180743079D002068410A9928
:1007A000079019430020099B00906046FF191343EE
:1007B0004041E20F64003A43A4460446D71A8C41F4
:1007C000A04203D90120009020463A46C70F941852
:1007D00040416246D20F2243644664000494009C68
:1007E000BE466400D71AA446044602978C41774659
:1007F000002F01D1A04204D96046401C8446029AD1
:100800002046C40FA64694184041049A0546D20FCC
:10081000224364466400D31A8D417146002901D1F8
:10082000A84202D928461A46641C10430122002817
:1008300000D0164361020020079B891904465C41E1
:100840000223002C02DB491813466441089DCE0A9E
:100850002D145D194B056705E10A2C050D19089942
:100860003E43C9076940002B08D0934006D30022BD
:10087000761C5141002B01D1760876001C4A002DD0
:1008800043DB154241D0AA433FD030460BB0F0BD08
:1008900006180D464D41174C7642AC411AD39518B7
:1008A0001C465C41134A6D42A24113D301225205FA
:1008B0004C00D4420AD15C00D4420BD04B4002D54C
:1008C00092021143E2E749004908DFE75940C90FA6
:1008D000C90718E000200849D8E7054801420DD1B2
:1008E0000342F7D0F2E700000000FF07801100008C
:1008F0000000F07F0000E0FF0000F87F1148594041
:100900000143C01241400020C0E70123089A9B0622
:100910009A4205DC032252078918C90FC907B5E7B7
:10092000052252078918074A1143D2125140ADE7F8
:1009300070B515461C4602460B4628462146FFF771
:10094000DFFD70BDFFFFFF7F0121C90501234118B5
:1009500042001B06D3185B0E0AD0C1100722D20634
:10096000891840075242D14201D552008918704778
:10097000090208D50146002A03D0C10FC90700208B
:10098000704710467047420202D00020024970476B
:10099000072109050143F4E70000F87F0102C215B1
:1009A00004D00123DB071943002A0ADB9E239A1A8D
:1009B00002D40846D0407047FF22410012069142FF
:1009C00001D900207047C017C04370471F22030C95
:1009D00002D10F2200041CD0030E01D10002083AFC
:1009E000030F01D10001121F830F01D18000921E5D
:1009F000002801DB4000521ED20551180212511886
:100A00001922904004D3491C002801D1490849000B
:100A100008467047C10FC90700D040420122920723
:100A20001143D3E701218907D0E7FFB504460D46FE
:100A300081B0243000902168880604D51022E06936
:100A40009143216000E00120A84201DD471B00E046
:100A500000270498A1697A191018081AA061207853
:100A6000C00602D42046C046C046002608E00398CF
:100A70006268A168805D9047206A401C761C2062F5
:100A800004988642F3DB2078C0060AD52046C0468B
:100A9000C04606E06268A16830209047206A401C8A
:100AA000206238467F1E0028F4DC07E00098626868
:100AB000A168405D9047206A401C206228466D1E58
:100AC0000028F3DC2046C046C0462078000602D548
:100AD000022005B0F0BD0120FBE70000084B70B517
:100AE0000D467B4400F013F80446284600F0E3FC72
:100AF000002802D00020C04370BD204670BD000019
:100B0000D909000001694A1C02610878704700B5E4
:100B10008FB0029100210591054901937944039119
:100B2000114604906846FFF775FB0FB000BD00004A
:100B3000E5FFFFFF754600F023F8AE460500694665
:100B40005346C008C000854618B020B5FFF71AFB11
:100B500060BC00274908B6460026C0C5C0C5C0C550
:100B6000C0C5C0C5C0C5C0C5C0C5403D49008D4653
:100B700070470446C046C0462046FFF7E6FA00002C
:100B8000004870478401002001491820ABBEFEE7F1
:100B900026000200704730B58C180278401C1307FD
:100BA0001B0F01D10378401C120906D10278401CAA
:100BB00003E00578401C0D70491C5B1EF9D101E073
:100BC0000B70491C521EFBD1A142E6D3002030BD60
:100BD00003480078002802D001200249C86170470C
:100BE0005F010020004200500A49096841430A4A57
:100BF0005161002191610521116100BF0649096918
:100C00000122120411400029F8D00021024A11618A
:100C1000704700008001002000E000E001461B2238
:100C2000120305E01046521E002801DC0020704728
:100C30000348C06808408842F4D10120F7E700006B
:100C400000020050002806D0012809D002280DD04B
:100C5000032816D110E000210B4A5161916111E087
:100C60000121094A5161002191610BE00021064AEE
:100C700051610121916105E00121034A51619161B6
:100C800000E000BF00BF70474042005010B51B4855
:100C9000006A002805D119484030006B012800D1B6
:100CA00000E0002016490978084000280CD01548BB
:100CB0004078401C134948700222542000F0F8F993
:100CC00000200F49087018E00C48006A012814D170
:100CD0000A484030006B00280FD1094800780028EE
:100CE0000BD108484078401E064948700222542023
:100CF00000F0DEF901200249087010BD40420050AA
:100D00006A0100206B01002010B51B48006A2021F9
:100D10000840002825D02020174908621748FFF70F
:100D200063FF1748406B002825D11448FFF75CFF8C
:100D30001348406B002808D112480078C04311497D
:100D4000087001201049087015E010480078401C18
:100D50000E4908700846007804280CDB0020087053
:100D600009E005484038006A0349403908620248F2
:100D7000006A0149086210BD40400050F04902007D
:100D8000004200505F0100205E0100206001002051
:100D900010B51948006AC007C00F00281AD00120FA
:100DA000154908627D20C000FFF71EFF1348006A46
:100DB00000281FD111484030006B01281AD110487B
:100DC0000078401C0E49087001200E490870FFF79A
:100DD0005DFF0FE008484038006A07494039086263
:100DE0000548006A0449086203484030006A024925
:100DF0004031086210BD0000C04000504042005029
:100E0000620100206A01002010B51A48006A102112
:100E1000084000281AD01020164908627D20C00022
:100E2000FFF7E2FE1448006A012821D11248403041
:100E3000006B00281CD111480078401C0F49087035
:100E400000200F490870FFF721FF11E00948C03862
:100E5000006A0849C039086206488038006A0549B6
:100E60008039086203484038006A02494039086204
:100E700010BD000040410050404200506101002080
:100E80006A01002010B58469130E8B401C438461F5
:100E9000C3691402240A8C402343C36110BD0000BF
:100EA00010B501221021524800F0AAF80122202199
:100EB0004F4800F0A5F8012280214D4800F0A0F82D
:100EC000012204214A48403000F09AF8012208210A
:100ED0004748403000F094F8012210214448403047
:100EE00000F08EF8032220214148403000F088F8BD
:100EF000022204213E48803000F082F802220821BC
:100F00003B48803000F07CF80122102138488030C6
:100F100000F076F8012220213548803000F070F88A
:100F2000012240213248803000F06AF8032201217A
:100F30002F48C03000F064F8032202212C48C03052
:100F400000F05EF8032204212948C03000F058F870
:100F5000032210212648C03000F052F8032220213D
:100F60002348C03000F04CF8012240212048C03016
:100F700000F046F8032210211E4800F041F801223B
:100F800005211B484030FFF77DFF042000F00EF9DB
:100F90000122002117488038FFF774FF0122114613
:100FA00014488038FFF76EFF012202211148803873
:100FB000FFF768FF012204210E488038FFF762FF27
:100FC000012205210B488038FFF75CFF052000F067
:100FD000EDF8094A04210748FFF754FF102000F0FC
:100FE000E5F800200549886348618861086110BD03
:100FF00000400050404100500100010040420050BC
:1010000070B5034600200FE0012484400C40002C02
:1010100009D01C6846000325B540AC434600154680
:10102000B5402C431C60401C0828EDD370BD000067
:10103000044604A0FFF7B4F8204600F097FA00BF7A
:10104000FEE70000496E2048617264204661756CBD
:10105000742048616E646C65720A00000448806AFE
:10106000044909780840002801D10148806A704786
:10107000804200506901002010B5044609488442AE
:1010800003D901200849086005E021460548FFF71B
:1010900048F90549086001200449C86088600020BB
:1010A00010BD000020A10700700100204042005048
:1010B000F8B506460F4614460025002C01D1002045
:1010C000F8BD01201D49C86088601D480068FFF711
:1010D0008BFD00201949C86019480068FFF784FD9E
:1010E00000201649886016480068FFF77DFDFE2144
:1010F0003140084600F026F8002800D00BE007E059
:1011000029466D1C785C00F01DF8002800D002E034
:10111000A542F5D300BF00200849C8600848006810
:10112000FFF762FD01200549886005480068FFF768
:101130005BFD01200149C8602846C1E740420050DC
:101140007001002070B50546002414E00720011B43
:10115000284608411349C86013480068FFF744FD5A
:1011600001201049886010480068FFF73DFD00200D
:101170000C498860641C082CE8D301200949C86028
:1011800009480068FFF730FD0120064988600648DD
:101190000068FFF729FD0348C46800200149886002
:1011A000204670BD4042005070010020C206D20EA1
:1011B00001219140014A11607047000000E100E008
:1011C00010B51B4840681B4908401949486008464B
:1011D00040680321084316494860174800688008A2
:1011E000800015490860084600680121084312493B
:1011F00008600120FFF712FD0F480069C008C00019
:101200000D49086108460069086108468068C901FF
:101210000843094988600846406903210906884354
:101220000549486108464069486100F053F810BD1F
:1012300040000050FCFCFFFF00020050002001496C
:10124000086070470001005006E059200549086019
:101250001620086088200860024800680128F4D140
:10126000704700000001005000B50346184600F02A
:1012700001F800BD00BF0B4989690122D205114068
:101280000029F8D1074908600A280AD100BF05499A
:1012900089690122D20511400029F8D10D21014AA6
:1012A000116070470000054010B5FFF7CDFFFFF754
:1012B00087FFFFF7F5FDFFF7C1FF10BD00200149D3
:1012C000886370474042005001200149886370479D
:1012D0004042005070B51248006945076D0F002D5F
:1012E00001D1104C08E0032D01D10F4C04E0072D73
:1012F00001D10E4C00E00D4C094880690007000F39
:10130000411C2046FFF70DF80949086009490848C3
:1013100000684A108018FFF704F80749086070BD9C
:1013200000020050001BB700102700000080510190
:101330007C01002040420F0080010020F0B58BB0FE
:1013400004460E46204600F05FF80546002009904E
:10135000294629480068FEF7E4FF07460020206080
:1013600060612648854208D1642130466330FEF72B
:10137000D8FF64214843064607E00A213046093079
:10138000FEF7CFFF0A21484306461D48854202D991
:10139000012009906D082846FFF744FB0290304673
:1013A000FFF740FB0190029900F034F90390FFF73A
:1013B000CBFA0022134B05910490FFF7A1F8079197
:1013C0000690FFF75FF808900898FFF7E7FA60606B
:1013D0000121890709980843206001E000BF7F1EB2
:1013E000002FFBD100BF20680121490608400028DA
:1013F000F9D10BB0F0BD00007C01002010270000E7
:10140000FFFFFF0080842E4102461448824206D12D
:101410001348406907231B021840010A05E01048E1
:10142000406907231B031840010B00290AD10C480F
:1014300000688007800F012801D10A487047012009
:10144000C003FBE7012901D10748F7E7022902D1D0
:1014500006480068F2E70648F0E700000000014097
:1014600000020050001BB700102700007C01002084
:101470000080510110B50120084908610849094858
:10148000FFF75CFF00200549086105490548FFF7A3
:1014900055FF01200149086110BD00004042005085
:1014A000881300000000014030380A2801D20120D2
:1014B00070470020704701460020C043704730B598
:1014C00004460D462046FFF7CFFE204630BD000003
:1014D000FFF7EAFE00201F4908701F49087001202D
:1014E0001E490870FFF7F0FEFFF7C4FF1C48FFF726
:1014F000C3FDFF225F321B495420FFF7D9FD28E0CE
:1015000014480078154909780840002813D0FFF7DF
:10151000DBFE1548FFF768FBFFF7ACFF1048FFF74D
:10152000ABFDFF225F320F495420FFF7C1FD0020C1
:101530000A49087005E007480078002801D1FFF744
:10154000BDFE05480078FFF77DFBFFF787FDFFF73D
:101550003FFBD5E75F010020600100205E01002015
:1015600050C3000000000020A086010010B5044612
:1015700010A02168FEF714FE11A06168FEF710FEAE
:1015800012A0A168FEF70CFE13A0E168FEF708FEAA
:1015900014A02169FEF704FE15A06169FEF700FEA4
:1015A00016A0A169FEF7FCFD17A0E169FEF7F8FDA2
:1015B00010BD0000723020203D20307825780A00D0
:1015C000723120203D20307825780A0072322020A8
:1015D0003D20307825780A00723320203D20307875
:1015E00025780A00723132203D20307825780A00B3
:1015F0006C7220203D20307825780A00706320200E
:101600003D20307825780A00707372203D203078B4
:1016100025780A0070B5420064414B005C41120E0F
:1016200039D01B0E38D0FF2A3CD0FF2B3AD04002D5
:101630004902400A490A060045184E43000A090AB1
:10164000D2184843ED017F3A0104731A4019190C6E
:101650004318990F04D001215B0849075B1A521CFB
:10166000D80904D3401CF50301D19D0607D0FF2AF9
:1016700008D2D50506D0E4072043401970BD0125E6
:10168000A843F4E7002A01DCE00770BD2402FF2034
:101690002043C00570BD1B0EFF2A03D0FF2B01D0D5
:1016A000E00770BDFF2645003606B54206D84D005E
:1016B000B54203D8D218FF2A00D0E7E7004870BD32
:1016C0000000C07F3031323334353637383941424B
:1016D0004344454640305800303132333435363794
:1016E00038396162636465664030780080807F7E4F
:1016F0007D7C7B7A79787776767574737271717088
:101700006F6E6E6D6C6C6B6A6A6968686766666539
:101710006464636362616160605F5F5E5E5D5D5CC7
:101720005C5B5B5A5A595958585757565655555538
:101730005454535352525251515050504F4F4F4E98
:101740004E4D4D4D4C4C4C4B4B4B4A4A4A494949E6
:101750004848484747474746464645454544444428
:101760004443434343424242424141418C170000BB
:101770000000002084010000960B0000A01800006B
:10178000840100206402000004010000420240685D
:101790002ECF2D002FCF30CF31CF15E716B32C43EE
:1017A0005290621A0100034E04000500064E0736EF
:1017B000083632000F001000110012001300140050
:1017C00033003400550F2B0B3508361A372C1C808C
:1017D0001D011E002500220020007E0300107F66F0
:1017E000FF0111FF66FF02107F66FF03117F66D2C3
:1017F0000410FECE5605114306204307204308205F
:101800004309204314114315204316204317204356
:101810001820431911431A20431B20431C20431D49
:1018200020431E11431F2043202043212043222018
:1018300043231143242043252043262043272043CC
:101840002811432920432A20432B20432C20432DB9
:1018500011432E20432F20433020433120433211A7
:10186000433320433420433520433620433711434C
:101870003820433920433A20433B20B0147E000CEB
:101880003F171F1915181F1A151B152804270026A6
:101890000711010101002ECF458051011600000003
:0400000500000000F7
:00000001FF
