:020000040000FA
:1000000070020020F1000000F5000000D5000000A3
:1000100000000000000000000000000000000000E0
:10002000000000000000000000000000F9000000D7
:100030000000000000000000FB000000FD000000C8
:10004000FF000000FF000000FF000000FF000000B4
:10005000A5030000FF000000FF000000FF000000FB
:10006000FF000000F50A0000FF000000FF00000094
:10007000FF000000FF000000FF000000FF00000084
:10008000FF000000FF000000FF000000FF00000074
:10009000FF000000FF000000FF000000FF00000064
:1000A000FF000000FF000000FF000000FF00000054
:1000B000FF000000FF000000FF000000FF00000044
:1000C0000348854600F064F800480047FD0E000034
:1000D0007002002004207146084202D0EFF309802C
:1000E00001E0EFF308807146004A104799060000CE
:1000F00003480047FEE7FEE7FEE7FEE7FEE7FEE710
:10010000C100000030B50B4601460020202201242A
:1001100009E00D46D5409D4205D31D469540491B3B
:100120002546954040191546521E002DF1DC30BD84
:10013000F0B51FB40646002082B005464024019168
:1001400000901BE0019922460F46304600F042F82D
:10015000049A059B801A994110D3104619462246ED
:1001600000F028F8361A8F4101972246012000211D
:10017000009F00F01FF838184D4100902046641E83
:100180000028DFDC019B00982946324607B0F0BD0D
:10019000064C0125064E05E0E36807CC2B430C3CDA
:1001A00098471034B442F7D3FFF78EFF9410000045
:1001B000B410000010B5202A04DB0146203A91401B
:1001C000002010BD914020239C1A0346E3401943B0
:1001D000904010BD10B5202A04DB0846203AD040DC
:1001E000002110BD0B46D340D0402024A21A9140DC
:1001F0000843194610BD0000C10F8900064A89183E
:100200008968C306DB0E01229A401143C20F920097
:10021000014BD2189160704700020050F0B50B46B8
:10022000002100240025C600360F002E0FD0460006
:10023000B60FB600114FF4192168C600370FC6017A
:10024000F60EB7400E46BE431E433146216086037C
:10025000360E002E10D00603B60FB600074F083733
:10026000F51929688603370E8605F60EB7400E4647
:10027000BE43164331462960F0BD00001002005015
:100280000A49096841430A4A5161002191610521E7
:10029000116100BF064909690122120411400029B9
:1002A000F8D00021024A1161704700006800002068
:1002B00000E000E001461B22120305E01046521E3A
:1002C000002801DC002070470348C06808408842CD
:1002D000F4D10120F7E70000000200500178002966
:1002E00006D0012918D002292CD0032952D13EE092
:1002F00000212A4A9162D16229490978002908D04F
:100300000021264A803211630121244A4032916241
:100310005162FF2101703EE00121204A91620021DB
:10032000D1621F490978002909D001211B4A803276
:1003300011630021194A4032916201215162FF216B
:10034000017028E00021154A91620121D16214490F
:100350000978002908D00121104A803211630F4A20
:100360004032916200215162FF21017013E00121AE
:100370000A4A9162D1620A490978002907D000210E
:10038000064A80321163054A403291625162FF2170
:10039000017000E000BF00BF704700000042005045
:1003A0002100002010B57548006A1021084000287F
:1003B00034D010207149086271480068401C7049AF
:1003C00008607048FFF75CFF6F48006B002814D18D
:1003D0006E48FFF755FF6C48006B00280ED16C4843
:1003E0000078C0436A49087001206A4908706A4968
:1003F00008706A4800786A490870BDE0674800786C
:10040000401C6649087008460078042801DB00207B
:1004100008706248007862490870ADE05748006A89
:10042000C007C00F00287DD05E480078012804D0A6
:10043000022806D0032803D121E002205949087080
:1004400088E059480068612801D9032000E00120B4
:100450005449087008460078032807D10020534902
:100460000860534908605349087007E05248007813
:10047000401C5149087001204E4908706AE04A4802
:1004800000680D2801D9012000E0002004464848FA
:10049000006808280ED2454800784010434908708B
:1004A00008460078E10108434049087000204149AE
:1004B000087039E03E48006810280ED23B4840786A
:1004C00040103A49487008464078E10108433749EE
:1004D000487000203749087026E035480068182821
:1004E0000ED23248807840103049887008468078B3
:1004F000E10108432D49887000202E49087013E05F
:100500002B48006820280FD22848C078401027497F
:10051000C8700846C078E10108432449C87000202B
:10052000244900E01EE0087021480068401C204972
:1005300008600846006820280BD30120194908707C
:100540001C49087000201C490870184880781B4915
:10055000087000BF00BF0020134908600120074950
:10056000086209E005484038006A044940390862D9
:100570000248006A0149086210BD00004040005076
:100580000C000020701101000042005060E31600D2
:100590001B000020190000201A0000201400002079
:1005A000280000201000002004000020000000208F
:1005B000080000201100002012000020130000207D
:1005C00010B501220421264800F04EF80122022134
:1005D000234800F049F8012210212148803000F022
:1005E00043F8032210211E48803800F03DF8022213
:1005F00004211B48403800F037F80222082118482F
:10060000403800F031F8032210211548403800F03E
:100610002BF8012204211248803800F025F801222D
:1006200008210F48803800F01FF8032210210C48E1
:10063000C03800F019F8032220210948C03800F022
:1006400013F801224021064800F00EF80020054969
:100650008863044940398862C8620249086110BD54
:10066000C04000504042005070B5034600200FE0EB
:10067000012484400C40002C09D01C68460003254E
:10068000B540AC4346001546B5402C431C60401CA9
:100690000828EDD370BD0000044604A000F098FACD
:1006A000204600F075FC00BFFEE70000496E2048C0
:1006B000617264204661756C742048616E646C657B
:1006C000720A000010B504460948844203D901208B
:1006D0000849086005E021460548FFF713FD054974
:1006E000086001200449C8608860002010BD000037
:1006F00020A107005800002040420050F8B50646EF
:100700000F4614460025002C01D10020F8BD012021
:100710001D49C86088601D480068FFF7B1FD0020D2
:100720001949C86019480068FFF7AAFD002016495A
:10073000886016480068FFF7A3FDFE213140084697
:1007400000F026F8002800D00BE007E029466D1CD9
:10075000785C00F01DF8002800D002E0A542F5D337
:1007600000BF00200849C86008480068FFF788FDFE
:1007700001200549886005480068FFF781FD0120D8
:100780000149C8602846C1E7404200505800002097
:1007900070B50546002414E00720011B28460841D7
:1007A0001349C86013480068FFF76AFD012010492B
:1007B000886010480068FFF763FD00200C498860DE
:1007C000641C082CE8D301200949C8600948006866
:1007D000FFF756FD01200649886006480068FFF7CC
:1007E0004FFD0348C468002001498860204670BD61
:1007F000404200505800002070B504460D460422C7
:1008000029462046FFF77AFF70BD000038B505463F
:10081000002422E060001249085CFF280AD1610030
:100820000F4A891849787D22D20051430846FFF7C4
:1008300027FD0FE060000A49095C6846017060000E
:100840000749401841786846417069462846FFF7D5
:10085000D3FF00BF00BF601CC4B2162CDAD338BD72
:100860002900002010B51B4840681B490840194961
:100870004860084640680321084316494860174805
:10088000006880088000154908600846006801215A
:100890000843124908600120FFF70CFD0F4800696A
:1008A000C008C0000D490861084600690861084693
:1008B0008068C901084309498860084640690321E6
:1008C000090688430549486108464069486100F0C7
:1008D0007BF810BD40000050FCFCFFFF0002005000
:1008E00000200149086070470001005006E05920CF
:1008F00005490860162008608820086002480068E2
:100900000128F4D1704700000001005000B50346F3
:10091000184600F001F800BD00BF0B4989690122AB
:10092000D20511400029F8D1074908600A280AD1E8
:1009300000BF054989690122D20511400029F8D17B
:100940000D21014A116070470000054010B5FFF706
:10095000CDFFFFF787FFFFF733FEFFF7C1FF10BDA5
:100960000020074988630749087001200449403185
:100970000863034988624862002003490870704791
:1009800040420050210000201A00002010B5012034
:10099000094988630948FFF773FC0020084908707B
:1009A00001200849087000200349403108630249CA
:1009B0008862486210BD000040420050400D0300B4
:1009C000190000202100002070B512480069450779
:1009D0006D0F002D01D1104C08E0032D01D10F4CFB
:1009E00004E0072D01D10E4C00E00D4C0948806950
:1009F0000007000F411C2046FFF784FB09490860EF
:100A00000949084800684A108018FFF77BFB07492E
:100A1000086070BD00020050001BB70010270000E6
:100A2000008051016400002040420F006800002057
:100A300002461448824206D11348406907231B022C
:100A40001840010A05E01048406907231B031840BD
:100A5000010B00290AD10C4800688007800F01288B
:100A600001D10A4870470120C003FBE7012901D1E9
:100A70000748F7E7022902D106480068F2E706486E
:100A8000F0E700000000014000020050001BB7002A
:100A9000102700006400002000805101FEB50546CB
:100AA0000F4616462846FFF7C3FF04460020019074
:100AB00000906008B04202D2022001900AE00C4887
:100AC000844202D901200090640831462046FFF795
:100AD00019FB019000983843286001986860009ADB
:100AE000521C0198504301462046FFF70BFBFEBD08
:100AF000FFFFFF002A48006B002830D0294800681B
:100B00000121090388420ED927480078C0432649AD
:100B1000087001202549087025490870254800788B
:100B20002549087014E01F480068FF210131884200
:100B30000ED920480078401C1E49087008460078ED
:100B4000042801DB002008701A4800781A49087050
:100B50000020144908600120184908700FE011486E
:100B60000068401C0F490860084600681449884224
:100B700002D908460B490860002010490870114846
:100B80000068401C0F4908600F480068401C0E496F
:100B9000086000BF01200D49886000BF7047000059
:100BA00000420050240000201B00002019000020FB
:100BB0001A00002014000020280000201800002047
:100BC000FFFF0000040000200C0000202000014076
:100BD0000FB410B503A9044B044A029800F018F8AA
:100BE00010BC08BC04B01847ED0E00005C000020EB
:100BF00002E008C8121F08C1002AFAD170477047E6
:100C0000002001E001C1121F002AFBD17047000043
:100C1000FFB58FB00F460446002606E025280AD00F
:100C2000129A11999047641C761C20780028F5D1FF
:100C3000304613B0F0BD00250121A14A009500E027
:100C40000543641C23780846203B98401042F7D1A6
:100C500020782E2815D1042005436078641C2A28AA
:100C60000AD101CF641C00900BE000990A22514385
:100C700030394018641C0090207801463039092929
:100C8000F3D920786C280ED004DC4C2813D06A28C5
:100C900012D104E074280ED07A280DD10BE0012087
:100CA0004005054307E00121090562780D438242B2
:100CB00001D16D18641C641C2078864669284AD0CE
:100CC00008DC0028B4D058286DD0632810D06428E0
:100CD00008D140E070286BD0732812D0752860D0FE
:100CE000782860D0129A704611999047761CE5E0FA
:100CF0003878694608720020487202A801900120E5
:100D000003E0386801900020C0433F1D69070CD5FF
:100D1000002500E06D1C00998D420FDA8542F9DB59
:100D20000199495D0029F5D108E0002500E06D1C1E
:100D30008542FCDB0199495D0029F8D1761907E06D
:100D4000019801990078491C0191129A11999047D4
:100D50006D1EF5D2B2E00A20029000216802400F19
:100D6000039102280CD001CFC117844600290DDA67
:100D70006246084652420021814194462D2008E0F7
:100D8000FF1DFF08FF0003CF8446EFE7280504D5C9
:100D90002B206A46107401203CE0E8073AD020205E
:100DA000F7E70A2000E0102000210391029007E0FD
:100DB0001020029000210420054308200391009098
:100DC0006802400F022810D001CF00218446002085
:100DD0000D9028071FD5704670280CD0029A10205D
:100DE000039B42401A430CD015E0FF1DFF08FF0093
:100DF00003CF8446EBE740206A46107401200D9033
:100E00000CE06046084306D030206A4610747046F5
:100E1000507402200D907046582804D029A00190EB
:100E20000DA80E900DE02CA0F9E76046039B029AF6
:100E3000FFF77EF9019B84469B5C0E9A521E0E9230
:100E4000137060460843F0D10E9805A9081A2030A7
:100E50000190680701D5009801E0012000900199F8
:100E6000884203DD01460198081A00E000200025B1
:100E7000009006E004A8129A405D119990476D1CFD
:100E8000761C0D988542F5DB04E0129A302011990A
:100E90009047761C0099481E00900029F5DC08E078
:100EA0000E980E990078491C0E91129A119990474C
:100EB000761C0199481E01900029F1DC641CB4E6FF
:100EC0000928010030313233343536373839616220
:100ED00063646566000000003031323334353637E4
:100EE00038394142434445460000000030B50446CD
:100EF0000D462046FFF70AFD204630BDFFF726FDD0
:100F000000201B49087001201A4908701A4908700E
:100F10001A4908621949403188631948FFF7D2FB22
:100F200001201649403108611648FFF7A9F99820B9
:100F3000FFF76CFC00F080F818E00D4800780D49D0
:100F400009780840002805D0FFF720FD0E48FFF77C
:100F500097F908E00848007805490978884300288F
:100F600001D0FFF7FDFC0948FFF7B8F9E5E70000FD
:100F70001B000020190000201A0000200042005031
:100F8000204E000050C300008813000028000020FD
:100F900010B5044610A02168FFF71AFE11A0616881
:100FA000FFF716FE12A0A168FFF712FE13A0E1687A
:100FB000FFF70EFE14A02169FFF70AFE15A0616974
:100FC000FFF706FE16A0A169FFF702FE17A0E16970
:100FD000FFF7FEFD10BD0000723020203D2030786C
:100FE00025780A00723120203D20307825780A00CB
:100FF000723220203D20307825780A00723320207C
:101000003D20307825780A00723132203D2030783A
:1010100025780A006C7220203D20307825780A005F
:10102000706320203D20307825780A00707372208C
:101030003D20307825780A0010B51248FFF7DCF81B
:10104000012200210F48FFF7E9F80F4A51060F4827
:10105000FFF724FD00BF0D48006801218907084300
:101060000A49086000BF00BF084600680906084337
:101070000649086000BF092001218140044A11602F
:1010800000BF10BDE303CC2E841E000020000140F1
:1010900000E100E0B4100000000000206C0000003F
:1010A000F00B0000201100006C0000200402000082
:1010B000000C000000000000000000000000000024
:1010C000000000000100000000000000000000001F
:1010D000000000000000000000000000000000010F
:1010E00011FF32010003110210255A0D10140115D1
:1010F000081600170018001B011C0F1D031E0122FB
:101100000223012400020003000000000000000090
:1011100000000000000000000080510116000000E7
:04000005000000F106
:00000001FF
