:020000040000FA
:1000000040020020F1000000F5000000D5000000D3
:1000100000000000000000000000000000000000E0
:10002000000000000000000000000000F9000000D7
:100030000000000000000000FB000000FD000000C8
:10004000FF000000FF000000FF000000FF000000B4
:10005000A5030000FF000000FF000000FF000000FB
:10006000FF000000DD0A0000FF000000FF000000AC
:10007000FF000000FF000000FF000000FF00000084
:10008000FF000000FF000000FF000000FF00000074
:10009000FF000000FF000000FF000000FF00000064
:1000A000FF000000FF000000FF000000FF00000054
:1000B000FF000000FF000000FF000000FF00000044
:1000C0000348854600F064F800480047F90E000038
:1000D0004002002004207146084202D0EFF309805C
:1000E00001E0EFF308807146004A104799060000CE
:1000F00003480047FEE7FEE7FEE7FEE7FEE7FEE710
:10010000C100000030B50B4601460020202201242A
:1001100009E00D46D5409D4205D31D469540491B3B
:100120002546954040191546521E002DF1DC30BD84
:10013000F0B51FB40646002082B005464024019168
:1001400000901BE0019922460F46304600F042F82D
:10015000049A059B801A994110D3104619462246ED
:1001600000F028F8361A8F4101972246012000211D
:10017000009F00F01FF838184D4100902046641E83
:100180000028DFDC019B00982946324607B0F0BD0D
:10019000064C0125064E05E0E36807CC2B430C3CDA
:1001A00098471034B442F7D3FFF78EFF04330000B2
:1001B0002433000010B5202A04DB0146203A914088
:1001C000002010BD914020239C1A0346E3401943B0
:1001D000904010BD10B5202A04DB0846203AD040DC
:1001E000002110BD0B46D340D0402024A21A9140DC
:1001F0000843194610BD0000C10F8900064A89183E
:100200008968C306DB0E01229A401143C20F920097
:10021000014BD2189160704700020050F0B50B46B8
:10022000002100240025C600360F002E0FD0460006
:10023000B60FB600114FF4192168C600370FC6017A
:10024000F60EB7400E46BE431E433146216086037C
:10025000360E002E10D00603B60FB600074F083733
:10026000F51929688603370E8605F60EB7400E4647
:10027000BE43164331462960F0BD00001002005015
:100280000A49096841430A4A5161002191610521E7
:10029000116100BF064909690122120411400029B9
:1002A000F8D00021024A1161704700003C00002094
:1002B00000E000E001461B22120305E01046521E3A
:1002C000002801DC002070470348C06808408842CD
:1002D000F4D10120F7E70000000200500178002966
:1002E00006D0012918D002292CD0032952D13EE092
:1002F00000212A4A9162D16229490978002908D04F
:100300000021264A803211630121244A4032916241
:100310005162FF2101703EE00121204A91620021DB
:10032000D1621F490978002909D001211B4A803276
:1003300011630021194A4032916201215162FF216B
:10034000017028E00021154A91620121D16214490F
:100350000978002908D00121104A803211630F4A20
:100360004032916200215162FF21017013E00121AE
:100370000A4A9162D1620A490978002907D000210E
:10038000064A80321163054A403291625162FF2170
:10039000017000E000BF00BF704700000042005045
:1003A0002100002010B57548006A1021084000287F
:1003B00034D010207149086271480068401C7049AF
:1003C00008607048FFF75CFF6F48006B002814D18D
:1003D0006E48FFF755FF6C48006B00280ED16C4843
:1003E0000078C0436A49087001206A4908706A4968
:1003F00008706A4800786A490870BDE0674800786C
:10040000401C6649087008460078042801DB00207B
:1004100008706248007862490870ADE05748006A89
:10042000C007C00F00287DD05E480078012804D0A6
:10043000022806D0032803D121E002205949087080
:1004400088E059480068612801D9032000E00120B4
:100450005449087008460078032807D10020534902
:100460000860534908605349087007E05248007813
:10047000401C5149087001204E4908706AE04A4802
:1004800000680D2801D9012000E0002004464848FA
:10049000006808280ED2454800784010434908708B
:1004A00008460078E10108434049087000204149AE
:1004B000087039E03E48006810280ED23B4840786A
:1004C00040103A49487008464078E10108433749EE
:1004D000487000203749087026E035480068182821
:1004E0000ED23248807840103049887008468078B3
:1004F000E10108432D49887000202E49087013E05F
:100500002B48006820280FD22848C078401027497F
:10051000C8700846C078E10108432449C87000202B
:10052000244900E01EE0087021480068401C204972
:1005300008600846006820280BD30120194908707C
:100540001C49087000201C490870184880781B4915
:10055000087000BF00BF0020134908600120074950
:10056000086209E005484038006A044940390862D9
:100570000248006A0149086210BD00004040005076
:100580000C000020701101000042005060E31600D2
:100590001B000020190000201A0000201400002079
:1005A000280000201000002004000020000000208F
:1005B000080000201100002012000020130000207D
:1005C00010B501220421264800F04EF80122022134
:1005D000234800F049F8012210212148803000F022
:1005E00043F8032210211E48803800F03DF8022213
:1005F00004211B48403800F037F80222082118482F
:10060000403800F031F8032210211548403800F03E
:100610002BF8012204211248803800F025F801222D
:1006200008210F48803800F01FF8032210210C48E1
:10063000C03800F019F8032220210948C03800F022
:1006400013F801224021064800F00EF80020054969
:100650008863044940398862C8620249086110BD54
:10066000C04000504042005070B5034600200FE0EB
:10067000012484400C40002C09D01C68460003254E
:10068000B540AC4346001546B5402C431C60401CA9
:100690000828EDD370BD0000044604A000F096FACF
:1006A000204600F07BFC00BFFEE70000496E2048BA
:1006B000617264204661756C742048616E646C657B
:1006C000720A000010B504460948844203D901208B
:1006D0000849086005E021460548FFF713FD054974
:1006E000086001200449C8608860002010BD000037
:1006F00020A107002C00002040420050F8B506461B
:100700000F4614460025002C01D10020F8BD012021
:100710001D49C86088601D480068FFF7B1FD0020D2
:100720001949C86019480068FFF7AAFD002016495A
:10073000886016480068FFF7A3FDFE213140084697
:1007400000F026F8002800D00BE007E029466D1CD9
:10075000785C00F01DF8002800D002E0A542F5D337
:1007600000BF00200849C86008480068FFF788FDFE
:1007700001200549886005480068FFF781FD0120D8
:100780000149C8602846C1E7404200502C000020C3
:1007900070B50546002414E00720011B28460841D7
:1007A0001349C86013480068FFF76AFD012010492B
:1007B000886010480068FFF763FD00200C498860DE
:1007C000641C082CE8D301200949C8600948006866
:1007D000FFF756FD01200649886006480068FFF7CC
:1007E0004FFD0348C468002001498860204670BD61
:1007F000404200502C00002070B504460D460422F3
:1008000029462046FFF77AFF70BD000038B505463F
:1008100000240FE060000949095C6846017060002F
:100820000649401841786846417069462846FFF7F6
:10083000E3FF641C02488442ECD338BDA0100000E2
:100840003111000010B51B4840681B490840194988
:100850004860084640680321084316494860174825
:10086000006880088000154908600846006801217A
:100870000843124908600120FFF71CFD0F4800697A
:10088000C008C0000D4908610846006908610846B3
:100890008068C90108430949886008464069032106
:1008A000090688430549486108464069486100F0E7
:1008B0007BF810BD40000050FCFCFFFF0002005020
:1008C00000200149086070470001005006E05920EF
:1008D0000549086016200860882008600248006802
:1008E0000128F4D1704700000001005000B5034614
:1008F000184600F001F800BD00BF0B4989690122CC
:10090000D20511400029F8D1074908600A280AD108
:1009100000BF054989690122D20511400029F8D19B
:100920000D21014A116070470000054010B5FFF726
:10093000CDFFFFF787FFFFF743FEFFF7C1FF10BDB5
:1009400000200749886307490870012004494031A5
:1009500008630349886248620020034908707047B1
:1009600040420050210000201A00002010B5012054
:10097000094988630948FFF783FC0020084908708B
:1009800001200849087000200349403108630249EA
:100990008862486210BD000040420050400D0300D4
:1009A000190000202100002070B512480069450799
:1009B0006D0F002D01D1104C08E0032D01D10F4C1B
:1009C00004E0072D01D10E4C00E00D4C0948806970
:1009D0000007000F411C2046FFF794FB09490860FF
:1009E0000949084800684A108018FFF78BFB07493F
:1009F000086070BD00020050001BB7001027000007
:100A0000008051013800002040420F003C000020CF
:100A1000002101604161704702461448824206D1BC
:100A20001348406907231B021840010A05E01048DB
:100A3000406907231B031840010B00290AD10C4809
:100A400000688007800F012801D10A487047012003
:100A5000C003FBE7012901D10748F7E7022902D1CA
:100A600006480068F2E70648F0E700000000014091
:100A700000020050001BB7001027000038000020C3
:100A800000805101FEB505460F4616462846FFF781
:100A9000C3FF04460020019000906008B04202D2DB
:100AA000022001900AE00C48844202D90120009003
:100AB000640831462046FFF725FB01900098384333
:100AC000286001986860009A521C019850430146C2
:100AD0002046FFF717FBFEBDFFFFFF002E48006B0F
:100AE00000281DD02D480068FF21013188420ED911
:100AF0002B480078401C2A490870084600780428D2
:100B000001DB002008702648007826490870002084
:100B100025490870214908600120244908702AE00D
:100B20001E48006801210903884214D91E48007834
:100B3000002810D101201C4908701D480078C043CE
:100B40001B49087001201B4908701B490870144894
:100B500000781449087011480068401C0F4908606B
:100B6000084600681549884202D908460B490860C2
:100B700000200E49087012480068401C10490860A7
:100B800010480068401C0F49086000BF01200E4952
:100B9000886000BF70470000004200502400002021
:100BA000140000202800002015000020180000205C
:100BB0001B000020190000201A000020FFFF000089
:100BC000040000200C000020200001400FB410B5EC
:100BD00003A9044B044A029800F018F810BC08BCA2
:100BE00004B01847E90E00003000002002E008C8F9
:100BF000121F08C1002AFAD170477047002001E097
:100C000001C1121F002AFBD170470000FFB58FB051
:100C10000F460446002606E025280AD0129A1199AC
:100C20009047641C761C20780028F5D1304613B01C
:100C3000F0BD00250121A14A009500E00543641C98
:100C400023780846203B98401042F7D120782E2880
:100C500015D1042005436078641C2A280AD101CFED
:100C6000641C00900BE000990A225143303940186F
:100C7000641C00902078014630390929F3D9207886
:100C80006C280ED004DC4C2813D06A2812D104E062
:100C900074280ED07A280DD10BE0012040050543C1
:100CA00007E00121090562780D43824201D16D18E8
:100CB000641C641C2078864669284AD008DC002819
:100CC000B4D058286DD0632810D0642808D140E0F3
:100CD00070286BD0732812D0752860D0782860D027
:100CE000129A704611999047761CE5E0387869466B
:100CF00008720020487202A80190012003E03868C1
:100D000001900020C0433F1D69070CD5002500E07D
:100D10006D1C00998D420FDA8542F9DB0199495D1E
:100D20000029F5D108E0002500E06D1C8542FCDBC0
:100D30000199495D0029F8D1761907E001980199D8
:100D40000078491C0191129A119990476D1EF5D2B5
:100D5000B2E00A20029000216802400F03910228AD
:100D60000CD001CFC117844600290DDA624608462F
:100D700052420021814194462D2008E0FF1DFF08CA
:100D8000FF0003CF8446EFE7280504D52B206A46F1
:100D9000107401203CE0E8073AD02020F7E70A2051
:100DA00000E0102000210391029007E01020029043
:100DB0000021042005430820039100906802400FA1
:100DC000022810D001CF0021844600200D90280772
:100DD0001FD5704670280CD0029A1020039B424009
:100DE0001A430CD015E0FF1DFF08FF0003CF844617
:100DF000EBE740206A46107401200D900CE060463D
:100E0000084306D030206A461074704650740220A1
:100E10000D907046582804D029A001900DA80E907E
:100E20000DE02CA0F9E76046039B029AFFF780F9DA
:100E3000019B84469B5C0E9A521E0E921370604674
:100E40000843F0D10E9805A9081A203001906807D0
:100E500001D5009801E0012000900199884203DD4E
:100E600001460198081A00E000200025009006E0E5
:100E700004A8129A405D119990476D1C761C0D983C
:100E80008542F5DB04E0129A302011999047761CD8
:100E90000099481E00900029F5DC08E00E980E9994
:100EA0000078491C0E91129A11999047761C01996D
:100EB000481E01900029F1DC641CB4E609280100F9
:100EC00030313233343536373839616263646566C0
:100ED0000000000030313233343536373839414282
:100EE000434445460000000030B504460D46204608
:100EF000FFF7FCFC204630BDFFF718FD00201F491E
:100F0000087001201E4908701E4908701E490862B9
:100F10001D49403188631D48FFF7D4FB00F092F86B
:100F20002BE016480078164909780840002814D0AC
:100F3000FFF71CFD1648FFF7A3F91648FFF768FDF9
:100F40009820FFF763FC1248FFF79AF901200E4939
:100F50004031086100F076F80CE00A480078074953
:100F600009788843002805D00020074940310861EE
:100F7000FFF7E6FC0848FFF7B1F9D2E71B000020B5
:100F8000190000201A0000200042005020A1070094
:100F900088130000200001402800002010B50446FE
:100FA00010A02168FFF712FE11A06168FFF70EFE86
:100FB00012A0A168FFF70AFE13A0E168FFF706FE82
:100FC00014A02169FFF702FE15A06169FFF7FEFD7D
:100FD00016A0A169FFF7FAFD17A0E169FFF7F6FD7A
:100FE00010BD0000723020203D20307825780A00A6
:100FF000723120203D20307825780A00723220207E
:101000003D20307825780A00723320203D2030784A
:1010100025780A00723132203D20307825780A0088
:101020006C7220203D20307825780A0070632020E3
:101030003D20307825780A00707372203D2030788A
:1010400025780A0010B51248FFF7D6F801220021D2
:101050000F48FFF7E3F80F4A51060F48FFF712FD5C
:1010600000BF0D4800680121890708430A4908604C
:1010700000BF00BF0846006809060843064908602B
:1010800000BF092001218140044A116000BF10BD4A
:10109000E303CC2E841E00002000014000E100E0AC
:1010A000000002100001030400000311002C087F5F
:1010B00009FF0AFF0B000C800D000E010F00107FCE
:1010C00011FF12FF130014FF15FF16FF1700188001
:1010D00019001A001B001C001D111E101F00207F8C
:1010E00021EE22F02300240025CC26292700287F8A
:1010F00029332AD72B002C002D1D2E3E2F00307FA8
:1011000031E232C233003400351136103700387FF7
:1011100039EE3AF03B003C003D663E3D3F00407FEB
:10112000419942C3430044004522461E4700487F80
:1011300049DD4AE24B004C004D884E404F00507F45
:10114000517752C0530054035529560B5700587C11
:1011500059D65AF55B005C015D0F5EEF5F00607E63
:1011600061F062116300640065006600670068005A
:1011700069006A006B006C006D006E006F007050BB
:10118000710072007300740D7500760077007800AE
:1011900079007A007B007C007D007E007F00002DBE
:1011A00008C009000A000B000C800D000E000F00A3
:1011B0001040110012001300140015001600170053
:1011C00018A219C01A001B001CD71D411EA01F0029
:1011D00020FF21F02200230024882500260027007C
:1011E000281829002A002B002C002D002E002F008B
:1011F0003000310032003300340035003600370053
:10120000383039003A003B003CD03D003E003F0002
:101210004000410342844300440045B24655470024
:10122000480E495B4ADE4B004C7F4DFF4EFF4F009E
:101230005000510052005300540255005600570010
:10124000582059005A005B005C005D515E265F002B
:1012500060406100620063006400650C66DC67004A
:10126000680269006A006B006C026D006E006F001E
:10127000700071007200730074007516765A770062
:10128000780079377A567B007C107DA97EBF7F007D
:10129000002E087F09FF0AFF0B000C000D000E0056
:1012A0000F00100211001200130014E015001600C8
:1012B0001700180C199E1A801B001CC01D001E0070
:1012C0001F00204F219F2216230024022500260004
:1012D0002700280029002A002B002C002D002E00BA
:1012E0002F0030203100320033003440350036000A
:1012F000370038E039003A003B003CC03D003E007A
:101300003F004000418042004300440045804600C9
:101310004700480049804A004B004C804D004E0079
:101320004F00507F51FF52FF53005400558056002C
:101330005700580059805A005B005C005D805E00D9
:101340005F0060C0610062006300647F65AA666F31
:10135000670068C0692A6AC96B006C006D006E0086
:101360006F00703F71AA726F730074007500760091
:101370007700787F79FF7AFF7B007C817D2D7E2D41
:101380007F00002F087D09A70AA80B000C7F0D29FC
:101390000EEB0F00108111AA12271300147F15FF06
:1013A00016FF1700188019D81A741B001C7E1D55D3
:1013B0001ED91F00207F2127228C2300248125AAEB
:1013C00026272700287F29FF2AFF2B002C9F2D7B13
:1013D0002E0D2F00304731D9322E3300346735209F
:1013E0003624370038AA39793A203B003C783DC88A
:1013F0003E9E3F0040A241B842574300445C45AE88
:1014000046394700485D49474AA94B004CAA4D89D7
:101410004E284F00507F51FF52FF5300548555EB2B
:1014200056575700587459AF5A715B005C7B5DADDD
:101430005E5A5F006088611D626C6300647D65B800
:10144000667D6700688269B46A4C6B006C7D6D10C4
:101450006E696F00707D714B72B47300748575375F
:1014600076187700785A79827A797B007C2D7D41D5
:101470007E3C7F000030080009000A000B000CE5EC
:101480000D7D0E870F001000110012001300147F55
:1014900015FF16FF1700188119A21A911B001C7C5A
:1014A0001DBC1E8D1F00207F216922B523002481D1
:1014B000252A26E42700287729CC2AE22B002CC3F2
:1014C0002D2B2E862F003050310C324B3300343C04
:1014D00035D4367A370038B839263AD23B003C7FCB
:1014E0003DFF3EFF3F0040004100420043004400FA
:1014F000450046004700480049004A004B004C00A8
:101500004D004E004F00507F51FF52FF53005400DA
:10151000550056005700580059005A005B005C0007
:101520005D005E005F00600061006200630064FDBA
:1015300065B9664B6700681669026A516B006C00FA
:101540006D086EC06F0070017153729A7300740061
:1015500075007600770078FE79AC7A667B007C7E39
:101560007DAA7E2C7F000031088209A70A350B0076
:101570000C000D000E000F00107F11DB1283130012
:101580001480154816ED1700183F19ED1AC31B00FB
:101590001CC01D121E3D1F00203F21ED22C3230051
:1015A000247F25D9265E27002880294D2A382B0044
:1015B0002C3F2DEC2EB02F0030C031213292330061
:1015C000343F35D0362C3700387F39A53A033B00FD
:1015D0003C803DB53E7A3F00400041004210430050
:1015E0004400450046104700480049004A104B009F
:1015F0004C7F4D7E4ED14F0050815100525A5300C6
:101600005400550056405700580059005A405B009E
:101610005C005D005E405F00603F617F62D36300FD
:101620006400650066006700680069406A176B0027
:101630006C006D206E0B6F00700071007200730003
:10164000747F75FF76FF7700780079007A007B0061
:101650007C007D007E007F000032080009000A0047
:101660000B000C000D000E000F00107F11FF12FF89
:1016700013001400150016001700180019001A00B6
:101680001B001C001D001E001F0020002100220066
:1016900023002440250026002700287F29FF2AFF59
:1016A0002B002C002D152E562F00300031153256F0
:1016B00033003400351536563700387939773AAB70
:1016C0003B003C8C3DBB3E503F004059410C42DC4E
:1016D000430044A645F3462447004859490C4ADCD8
:1016E0004B004C554D864EE04F0050C651DA5250DB
:1016F00053005403558556FC5700580359855AFC2E
:101700005B005C035D855EFC5F006055618662E0A6
:10171000630064C665DA66506700687869036A81A9
:101720006B006C876DFC6E7F6F0070787103728147
:101730007300747775E276947700788F79B77A239F
:101740007B007C7F7DFF7EFF7F0000330800090067
:101750000A000B000C000D000E000F00100011809D
:1017600012001300141415C01600170018091900F0
:101770001A001B001C201D001E001F0020802100DD
:1017800022012300247F25FF26FE2700287F29FF32
:101790002AFD2B002C002D002E102F0030003100D0
:1017A0003215330034003500360037003800390078
:1017B0003A003B003C3F3DAE3E143F0040C041007C
:1017C0004200430044C0450046004700480049002D
:1017D0004A004B004C3A4D004E004F005001514022
:1017E00052005300544655805600570058595980AE
:1017F0005A005B005C005D005E005F0060006100FD
:1018000062006300640065006600670068006900AC
:101810006A006B006C006D006E006F00700071005C
:10182000720073007400750076007700780079000C
:101830007A007B007C007D007E007F000034080081
:1018400009000A000B000C000D000E000F00100034
:1018500011001200130014001500160017001800E4
:1018600019001A001B001C001D001E001F00200094
:101870002100220023002400250026002700280044
:1018800029002A002B002C002D002E002F003000F4
:101890003100320033003440350036003700380064
:1018A00039043A003B003C003D003E003F00400050
:1018B0004100420043004440450046004700003ECE
:1018C000087F09FF0AFF0B000C800D000E010F00BE
:1018D000107F11FF12FF130014FF15FF16FF1700F2
:1018E000188019001A001B001C001D111E101F007B
:1018F000207F21EE22F02300240025CC262927007A
:10190000287F29332AD72B002C002D1D2E3E2F0097
:10191000307F31E232C233003400351136103700E7
:10192000387F39EE3AF03B003C003D663E3D3F00DB
:10193000407F419942C3430044004522461E470070
:10194000487F49DD4AE24B004C004D884E404F0035
:10195000507F517752C0530054035529560B5700FE
:10196000587C59D65AF55B005C015D0F5EEF5F0055
:10197000607E61F0621163006400650066006700CC
:10198000680069006A006B006C006D006E006F00FB
:101990007050710072007300740D7500760077004E
:1019A000780079007A007B007C007D007E007F005B
:1019B000003F08C009000A000B000C800D000E005B
:1019C0000F00104011001200130014001500160043
:1019D0001700189119C01A001B001CD71D411EA02A
:1019E0001F0020FF21F0220023002488250026006C
:1019F0002700281829002A002B002C002D002E007B
:101A00002F00300031003200330034003500360042
:101A10003700383039003A003B003CD03D003E00F2
:101A20003F004000410342844300440045B2465514
:101A30004700480E495B4ADE4B004C7F4DFF4EFF8E
:101A40004F00500051005200530054025500560000
:101A50005700582059005A005B005C005D515E261B
:101A60005F0060406100620063006400650C66DC3A
:101A70006700680269006A006B006C026D006E000E
:101A80006F00700071007200730074007516765A52
:101A90007700780079377A567B007C107DA97EBF6D
:101AA0007F000040087F09FF0AFF0B000C000D00BB
:101AB0000E000F00100211001200130014E01500B8
:101AC00016001700180C199E1A801B001CC01D0060
:101AD0001E001F00204F219F2216230024022500F4
:101AE00026002700280029002A002B002C002D00AA
:101AF0002E002F00302031003200330034403500FA
:101B00003600370038E039003A003B003CC03D0069
:101B10003E003F00400041804200430044004580B9
:101B200046004700480049804A004B004C804D0069
:101B30004E004F00507F51FF52FF5300540055801C
:101B400056005700580059805A005B005C005D80C9
:101B50005E005F0060C0610062006300647F65AA90
:101B6000666F670068C0692A6AC96B006C006D0007
:101B70006E006F00703F71AA726F73007400750081
:101B800076007700787F79FF7AFF7B007C817D2D5E
:101B90007E2D7F000041087D09A70AA80B000C7F5D
:101BA0000D290EEB0F00108111AA12271300147FCC
:101BB00015FF16FF1700188019D81A741B001C7E19
:101BC0001D551ED91F00207F2127228C2300248130
:101BD00025AA26272700287F29FF2AFF2B002C9FD4
:101BE0002D7B2E0D2F00304731D9322E3300346734
:101BF00035203624370038AA39793A203B003C7822
:101C00003DC83E9E3F0040A241B842574300445C5D
:101C100045AE46394700485D49474AA94B004CAAA2
:101C20004D894E284F00507F51FF52FF530054857D
:101C300055EB56575700587459AF5A715B005C7B8F
:101C40005DAD5E5A5F006088611D626C6300647DFB
:101C500065B8667D6700688269B46A4C6B006C7D0C
:101C60006D106E696F00707D714B72B47300748576
:101C7000753776187700785A79827A797B007C2DCF
:101C80007D417E3C7F000042080009000A000B00F5
:101C90000CE50D7D0E870F001000110012001300DF
:101CA000147F15FF16FF1700188119A21A911B0047
:101CB0001C7C1DBC1E8D1F00207F216922B52300C6
:101CC0002481252A26E42700287729CC2AE22B0024
:101CD0002CC32D2B2E862F003050310C324B33006D
:101CE000343C35D4367A370038B839263AD23B00FE
:101CF0003C7F3DFF3EFF3F0040004100420043006B
:101D00004400450046004700480049004A004B0097
:101D10004C004D004E004F00507F51FF52FF5300CA
:101D20005400550056005700580059005A005B00F7
:101D30005C005D005E005F006000610062006300A7
:101D400064FD65B9664B6700681669026A516B00ED
:101D50006C006D086EC06F0070017153729A730051
:101D6000740075007600770078FE79AC7A667B00A7
:101D70007C7E7DAA7E2C7F000043088209A70A355D
:101D80000B000C000D000E000F00107F11DB128302
:101D900013001480154816ED1700183F19ED1AC3EB
:101DA0001B001CC01D121E3D1F00203F21ED22C341
:101DB0002300247F25D9265E27002880294D2A3834
:101DC0002B002C3F2DEC2EB02F0030C03121329251
:101DD0003300343F35D0362C3700387F39A53A03ED
:101DE0003B003C803DB53E7A3F0040004100421040
:101DF00043004400450046104700480049004A108F
:101E00004B004C7F4D7E4ED14F0050815100525AB5
:101E100053005400550056405700580059005A408E
:101E20005B005C005D005E405F00603F617F62D3ED
:101E300063006400650066006700680069406A1717
:101E40006B006C006D206E0B6F00700071007200F3
:101E50007300747F75FF76FF7700780079007A0051
:101E60007B007C007D007E007F00004408000900AC
:101E70000A000B000C000D000E000F00107F11FF78
:101E800012FF1300140015001600170018001900A7
:101E90001A001B001C001D001E001F002000210056
:101EA000220023002440250026002700287F29FF48
:101EB0002AFF2B002C002D152E562F003000311537
:101EC00032563300340035153656370038793977B5
:101ED0003AAB3B003C8C3DBB3E503F004059410C6F
:101EE00042DC430044A645F3462447004859490CC8
:101EF0004ADC4B004C554D864EE04F0050C651DA3F
:101F0000525053005403558556FC570058035985C9
:101F10005AFC5B005C035D855EFC5F00605561867A
:101F200062E0630064C665DA66506700687869033A
:101F30006A816B006C876DFC6E7F6F007078710337
:101F400072817300747775E276947700788F79B731
:101F50007A237B007C7F7DFF7EFF7F0000450800A9
:101F600009000A000B000C000D000E000F0010000D
:101F7000118012001300141415C016001700180960
:101F800019001A001B001C201D001E001F002080CD
:101F9000210022012300247F25FF26FE2700287F21
:101FA00029FF2AFD2B002C002D002E102F003000C1
:101FB0003100320A33003400350036003700380073
:101FC00039003A003B003C3F3DAE3E143F0040C06C
:101FD00041004200430044C045004600470048001D
:101FE00049004A004B004C3A4D004E004F00500152
:101FF00051405200530054465580560057005859DE
:1020000059805A005B005C005D005E005F0060006C
:10201000610062006300640065006600670068009C
:1020200069006A006B006C006D006E006F0070004C
:1020300071007200730074007500760077007800FC
:1020400079007A007B007C007D007E007F000046E6
:10205000080009000A000B000C000D000E000F0024
:1020600010001100120013001400150016001700D4
:10207000180019001A001B001C001D001E001F0084
:102080002000210022002300240025002600270034
:10209000280029002A002B002C002D002E002F00E4
:1020A0003000310032003300344035003600370054
:1020B000380039043A003B003C003D003E003F0040
:1020C00040004100420043004440450046004700B4
:1020D0000098080009100A000B000C000D100E04F7
:1020E0000F011000112112F013D41400152116EC69
:1020F00017D5180019621AEC1B001C011D201E7850
:102100001F0020012120227C230024012514268287
:1021100027BE280029212AF02BD62C002D622EEC78
:102120002F01300131203278330034013520367CE4
:102130003700380139143A823BBE3C003D623EF024
:102140003F214000416242504348440145B2464C61
:102150004747480149324A484B464C014DB24E541C
:102160004F4A500051725258534B5400556256F02A
:102170005743580059625A505B4E5C005D405E0008
:102180005F49600161326248634C640165B2664C2C
:10219000674D680169B26A546B506C006D726E587D
:1021A0006F5170007100720073007400750076004A
:1021B0007700780079407A007B4F7C007D627EEC6E
:1021C0007F210099080009620A1C0B540C010DB212
:1021D0000E180F5310001140120413521400157200
:1021E00016141752180119B21A201B561C001D7222
:1021F0001E241F572000216222302357240125B2BC
:10220000262C2756280129322A282B552C012DB29D
:102210002E342F59300031723238335A34003500A1
:1022200036003700380039003A003B003C003D40A2
:102230003E003F584000416242F043214400456265
:1022400046F04743480049004A004B004C004D40CF
:102250004E004F5F5000514052005365540055628C
:102260005668575F580159B25A6C5B605C005D72EA
:102270005E705F61600161B2626063636400657299
:1022800066646764680069626A686B656C016DB258
:102290006E6C6F66700071407200736274007572CC
:1022A00076707767780179B27A607B697C007D729D
:1022B0007E647F6A009A080009720AF00B620C00C3
:1022C0000D000E000F0010001140120013681400E2
:1022D000154016001777180019621A901B771C0119
:1022E0001DB21E941F7820002172229823792401A8
:1022F00025B22688277B280029722A8C2B7C2C006B
:102300002D002E002F003000310032003300340049
:1023100035403600377A380039C23AF03B7A3C0013
:102320003D623EF03F7A40004100420043004400DD
:1023300045404600478A480149104A184B034C0063
:102340004D624EF34FFB50005100520053005401B8
:10235000551056005703580059635A635BFB5C00E5
:102360005D005E005F006000610062006300640069
:1023700065406600677D680069626AF06B7D6C008D
:102380006D636E646F7D7000710072007300740085
:10239000758376647702780079837A687B027C00A3
:1023A0007D007E007F00009B080109100A140B06C7
:1023B0000C000D630E6F0FFB10001163124F13FB27
:1023C0001400150016001700180019831A701B025C
:1023D0001C001D831E6C1F022001211022002306F9
:1023E0002400250026002700280029002A002B00B1
:1023F0002C002D002E002F00300031003200330061
:102400003400350036003700380039003A003B0010
:102410003C003D633E6F3FFB400141034260438A05
:102420004400450046004700480049004A004B0070
:102430004C014D104E0C4F055000516252F0538A22
:102440005400550056005700580059005A005B00D0
:102450005C005D835E6C5F02600161106200630579
:102460006400650066006700680069006A006B0030
:102470006C006D006E006F007000710072007300E0
:102480007400750076007700780079637A777BFBBB
:102490007C007D727EF07F8A009C080009000A00A3
:1024A0000B000C000D000E000F0010001140120474
:1024B000137E1400156216A4177E180119B21AA80B
:1024C0001B7F1C001D721EAC1F80200121B2229CAC
:1024D00023822400257226A02783280029002A00B1
:1024E0002B002C002D002E002F0030003140320038
:1024F00033813400354036003784380039623AB8C9
:102500003B843C013DB23EBC3F854000417242C02D
:102510004386440145B246B04788480049724AB4F0
:102520004B894C004D004E004F00500051005200AE
:1025300053005400554056005787580059625A5F5F
:102540005BFB5C005D005E005F00600061906210FC
:1025500063006400650066006700680069006A0047
:102560006B006C006D836E786F02700071007200FA
:10257000730074007563765C7762780079737A789B
:102580007B877C007D637E5C7F68009D080009730B
:102590000A780B870C000D400E080F6B100011001D
:1025A0001200130014001540160817711800196264
:1025B0001A7C1B6B1C011DB21E801F6C2000217237
:1025C0002284236D240125B22674276F28002972E6
:1025D0002A782B702C002D622E7C2F71300131B2A5
:1025E00032803372340035413680376E38003972AC
:1025F0003A843B733C013DB23E743F7540004172EA
:10260000427843764400456246EC476E4800497381
:102610004A804B6F4C004D414E804F7450005173B7
:10262000527C538F5400556256EC577458005973BE
:102630005A805B755C005D405E045F8E6000617374
:10264000627C6391640065006600670068006962EF
:102650006AF06B8E6C006D406E046F90700071625A
:1026600072F07390740075407608775B780079009B
:102670007A007B007C007D407E087F5C009E080025
:1026800009630A440B5B0C000D730E480F21100008
:1026900011631244135C1400157316481743180095
:1026A00019401A001B921C001D001E001F00200074
:1026B0002140220023932400256226EC2792280043
:1026C00029622ACC2B962C012DB22EC82F953000D2
:1026D0003140320433943400357236C437943801B3
:1026E00039B23AD03B983C003D723ED43F9940000D
:1026F000416242E04399440145B246DC47984801B3
:1027000049324AD84B974C014DB24EE44F9B500092
:10271000517252E8539C540055005600570058001F
:1027200059005A005B005C005D405E005F9A6000EB
:10273000616262EC63936400656266CC679F6801C6
:1027400069B26AC86B9E6C006D406E046F9D70002C
:10275000717272C4739D740175B276D077A17800DE
:1027600079727AD47BA27C007D627EE07FA2009F9A
:10277000080109B20ADC0BA10C010D320ED80FA022
:10278000100111B212E413A41400157216E817A573
:10279000180019001A001B001C001D001E001F005D
:1027A00020002140220023A32400256226EC274399
:1027B000280029622A1C2BA82C012DB22E182FA725
:1027C00030003140320433A634003572361437A657
:1027D000380139B23A203BAA3C003D723E243FAB5F
:1027E00040004162423043AB440145B2462C47AA07
:1027F000480149324A284BA94C014DB24E344FADE5
:1028000050005172523853AE5400550056005700D4
:10281000580059005A005B005C005D405E005FACF0
:1028200060006162624463B264006570661067B202
:10283000680069C26A446B496C006D906E106F3F0E
:10284000700071E272EC73B674007562764477B40E
:10285000780079707A107BB47C007D407E047FB173
:1028600000A0080009C20A440B4F0C000D900E1086
:102870000F3F100011E212EC13B614011503168479
:1028800017B1180019621A3F1BFB1C001D401E04E3
:102890001FB320012110220C2302240125B226ECB3
:1028A00027B1280129102A002B022C012DB22EEC71
:1028B0002FB33000310032003300340035003600D1
:1028C0003700380039403A003BB53C003D623EECF1
:1028D0003FB540004100420043004400450046002F
:1028E0004700480149104A184B024C004D924E4097
:1028F0004F05500151105200530254005563564C7D
:1029000057B5580059005A005B005C005D605E10CE
:102910005F5860006140620463B764006583668845
:102920006703680069736A886B586C006D636E8812
:102930006F9A700071907210733F740075E276ECBC
:1029400077B6780079637A887BAC7C007D707E10E6
:102950007FAC00A1080009400A040BAF0C000D6316
:102960000E880FA3100011901210133F140015E2EF
:1029700016EC17B6180019001A001B001C001D00E9
:102980001E001F0020002140220423B024002562E5
:1029900026F027AF280029622AFC2BBA2C012DB281
:1029A0002EF82FB93001313232F433B8340135B357
:1029B000360037BC380039733A043BBD3C003D62F9
:1029C0003EF03FB04000416242FC43C044004540FD
:1029D000460047BB480149324AF44BBE4C014DB258
:1029E0004EF84FBF500151B3520053C254005573BB
:1029F000560457C3580059005A005B005C005D0044
:102A00005E005F0060006140620063C16400656257
:102A100066F067AF680069636A106BC66C016DB3DE
:102A20006E0C6FC570017133720873C4740175B395
:102A3000761477C8780079737A187BC97C007D6238
:102A40007EF07FB000A2080009630A100BCC0C00D6
:102A50000D400E000FC710011133120813CA1401E4
:102A600015B3160C17CB180119B31A141BCE1C0082
:102A70001D731E181FCF20002100220023002400F8
:102A8000250026002700280029402A002BCD2C00F5
:102A90002D622EEC2FAF30003163322433D234015B
:102AA00035B3362037D1380039403A043BD03C00AA
:102AB0003D733E1C3FD0400141B3422843D4440003
:102AC0004573462C47D5480049634A384BD54C01DD
:102AD0004DB34E344FD450015133523053D354017F
:102AE00055B3563C57D7580059735A405BD85C00D1
:102AF0005D005E005F0060006100620063006400D2
:102B00006540660067D6680069626AEC6BB06C006D
:102B10006D636E246FDB700171B3722073DA740021
:102B20007540760477D9780079737A1C7BD97C015B
:102B30007DB37E287FDD00A3080009730A2C0BDE1D
:102B40000C000D630E380FDE100111B3123413DDCB
:102B500014011533163017DC180119B31A3C1BE0A9
:102B60001C001D731E401FE12000210022002300D5
:102B70002400250026002700280029402A002BDFFA
:102B80002C002D632E932FFB30003163328F33FBEB
:102B90003400353036EC3702380039303AF03B0239
:102BA0003C013D143E823F4440004160428043BBB3
:102BB00044004560468047C1480049604A804BD682
:102BC0004C004D404E044FE850005140520453EA2F
:102BD00054005540560457EC580059605A805BDF4A
:102BE0005C005D605E805FC760006160628063CD95
:102BF00064006540660467EE680069406A046BF033
:102C00006C006D406E046FF270007163729373FB21
:102C100074007563768F77FB780079307AEC7B02ED
:102C20007C007D307EF07F0200A4080109140A8236
:102C30000B4B0C000D630E930FFB10001163128FF2
:102C400013FB1400153016EC1702180019301AF097
:102C50001B021C011D141E821F522000216322939F
:102C600023FB24002563268F27FB280029302AEC2C
:102C70002B022C002D302EF02F0230013114328225
:102C8000335734003563369337FB380039633A8F56
:102C90003BFB3C003D303EEC3F024000413042F007
:102CA00043024401451446824769480049634A93F8
:102CB0004BFB4C004D634E8F4FFB5000513052EC9C
:102CC00053025400553056F05702580159145A8295
:102CD0005B745C005D635E935FFB60006163628FA9
:102CE00063FB6400653066EC6702680069306AF077
:102CF0006B026C016D146E826F9070007160728057
:102D000073E974007560768077EB780079607A807B
:102D10007BED7C007D407E047FE200A50800094039
:102D20000A040BE30C000D400E040FE410001160C8
:102D3000128013EF14001560168017F11800196047
:102D40001A801BF31C001D401E041FE520002140BB
:102D5000220423E624002540260427E728002960D2
:102D60002A002BE22C002D702E042FE4300031704D
:102D7000320833E634003560360037E33800397006
:102D80003A043BE53C003D403E013F1640004170A7
:102D9000420843E744004500460047004800490018
:102DA0004A004B004C004D404E014F1750005163FC
:102DB00052FD53165400556356FD571758005900DD
:102DC0005A005B005C005D405E055F18600061407A
:102DD000620563196400656266ED671868006962E0
:102DE0006AED6B196C006D216EF06FE5700071403B
:102DF00072057323740075407605776F7801791436
:102E00007A837BCC7C007D217EF07FE600A60801E2
:102E100009140A830BCC0C000D6F0EED0F1A100075
:102E2000116F12ED131B1400159316F01700180004
:102E300019931AF01B001C001D931EEC1F0F20009D
:102E4000219322EC230F240025302600270128009F
:102E500029302A002B012C002D6F2EED2F1C300065
:102E6000316F32ED331D3400359336F037003800C2
:102E700039933AF03B003C003D933EEC3F0F40005D
:102E8000419342EC430F440045304600470148005F
:102E900049304A004B014C004D6F4EED4F1E500023
:102EA000516F52ED531F5400559356F05700580080
:102EB00059935AF05B005C005D935EEC5F0F60001D
:102EC000619362EC630F640065306600670168001F
:102ED00069306A006B016C006D6F6EED6F207000E1
:102EE000716F72ED73217400759376F0770078003E
:102EF00079937AF07B007C007D937EEC7F0F00A7B6
:102F0000080009930AEC0B0F0C000D300E000F01A6
:102F100010001130120013011400156F16F117661E
:102F20001800196F1AF11B671C001D931EF01F007B
:102F30002000219322F023002400259326EC270F64
:102F4000280029932AEC2B0F2C002D302E042F0162
:102F500030003130320433013400356F36F13768D8
:102F60003800396F3AF13B693C003D933EF03F0039
:102F70004000419342F043004400459346EC470F24
:102F8000480049934AEC4B0F4C004D304E044F0122
:102F900050005130520453015400556F56F1576A96
:102FA0005800596F5AF15B6B5C005D935EF05F00F7
:102FB0006000619362F063006400659366EC670FE4
:102FC000680069936AEC6B0F6C006D306E046F01E2
:102FD00070007130720473017400756F76F1776C54
:102FE0007800796F7AF17B6D7C007D937EF07F00B5
:102FF00000A8080009930AF00B000C000D930EECDA
:103000000F0F1000119312EC130F1400153016045B
:103010001701180019301A041B011C001D621EF153
:103020001F182000216222F1231924002530264890
:103030002702280029302A4C2B022C012D102E03A8
:103040002FFF300131CC3271331A3400358F36E91D
:1030500037C63800399C3A453B943C003DD83EBBCE
:103060003FE6400041F342E64349440045254632ED
:1030700047E2480049894A4C4B0C4C014D014EA592
:103080004F58500151B452E453F8540155835690AF
:1030900057C0580159DE5A805B225C005DE45E1324
:1030A0005F516001617062B76397640165A3664018
:1030B000673B680169C76AE16B666C006DED6E4243
:1030C0006FEF7000715A72387339740175A37668A6
:1030D00077117801796E7A9B7B867C007D6C7EDF30
:1030E0007FC000A9080109390AD20B940C010DB860
:1030F0000EEE0F68002C0100010400000311040112
:10310000050106000700082009000A000B010C7CDD
:103110000D000E000F00100011001200131014001B
:10312000150016001700180019001A801B001C005B
:103130001D001E001F042000210022002301240086
:10314000250026F32704280229002A112B1F2C0012
:103150002D002E002F0030003100320033003400EB
:10316000350036003700380039003A003B003C009B
:103170003D443E443F22400241074214430544007F
:10318000450046004700485549004A004B004C00A6
:103190004D004E004F0050005100520053005400AB
:1031A000550756005700588159005A005B365C009D
:1031B0005D405E005F0060016110620063006400BA
:1031C0006501660F6703680769106AD06B106C00B1
:1031D0006D006E036F00700371017203730074045D
:1031E000750076887701780079007A007B007C0092
:1031F0007D007E007F000001010002000300040347
:10320000050006000700081009010A330B110C1114
:103210000D110E000F011000110012001300140018
:10322000150016001700180019001A001B001C00DA
:103230001D001E001F00200021002200230024008A
:10324000250026002700280029002A002B002C003A
:103250002D002E002F0030003100320033003400EA
:10326000350036003700380039003A003B003C009A
:103270003D003E003F00400041004200430044004A
:10328000450046004700480049004A004B004C00FA
:103290004D004E004F0050005100520053005400AA
:1032A000550056005700580059005A005B005C005A
:1032B0005D005E005F00600061006200630064000A
:1032C000650066006700680069006A006B006C00BA
:1032D0006D006E006F00700071007200730074006A
:1032E000750076007700780079007A007B007C001A
:1032F0007D007E007F000000020003000700082020
:1033000055070000243300000000002040000000AA
:10331000EC0B0000643300004000002000020000BD
:10332000FC0B000000000000000000000000000096
:10333000000000000100000000000000000000008C
:10334000000000000000000000000000000000007D
:10335000000000000000000000000000008051019B
:043360001600000053
:04000005000000F106
:00000001FF
