:1000F500E4F5B1F5B1F5B3F5B4F5B5F5B6F5ACF58F
:10010500AD43B408D2B030B01CC2927FC87E007D2A
:10011500007C001202E4D2927FC87E007D007C0044
:100125001202E480E1A2AF9200C2AF75C7AA75C7FB
:1001350055439604A20092AFA2AF9200C2AF75C715
:10014500AA75C7555396FDA20092AFE59720E0FB2F
:10015500A2AF9200C2AF75C7AA75C7555397DFA264
:100165000092AFC2927F147E007D007C001202E4F3
:10017500D2927F147E007D007C001202E480E4228E
:1003A400538EF7438901D28CEF4E6012758AF37530
:1003B4008CFF308DFDC28DEF1F70011E80EAC28C50
:0103C4002216
:1002E4008F1F8E1E8D1D8C1C538EF7438901D28C5B
:1002F400E4FFFEFDFCAB1FAA1EA91DA81CC312002F
:10030400D16025758ACA758CFA308DFDC28DE51FC2
:1003140024FFF51FE51E34FFF51EE51D34FFF51D12
:0B032400E51C34FFF51C80C8C28C22D1
:10032F008F0B8E0A8D098C08538EEF438910D28E56
:10033F00E4FFFEFDFCAB0BAA0AA909A808C3120033
:10034F00D16025758BCA758DFA308FFDC28FE50B85
:10035F0024FFF50BE50A34FFF50AE50934FFF5092B
:0B036F00E50834FFF50880C8C28E22AC
:100249008F0F8E0E8D0D8C0C53C9BF53C9DF43C957
:1002590010D2CAE4FFFEFDFCAB0FAA0EA90DA80C33
:10026900C31200D1602575CC6075CDF030CFFDC2C9
:10027900CFE50F24FFF50FE50E34FFF50EE50D343C
:0E028900FFF50DE50C34FFF50C80C8C2CA224B
:100297008F138E128D118C1075C40243C408E4FFAE
:1002A700FEFDFCAB13AA12A911A810C31200D1605E
:1002B7002875C56075C6F0E5C430E4FB53C4EFE5A7
:1002C7001324FFF513E51234FFF512E51134FFF59A
:0D02D70011E51034FFF51080C553C4F72267
:10037A00759852438920438780438E1053C4DFAB5C
:10038A0007AA06A905A8047F407E427D0F7C0012B9
:0A039A00003FEFF404F58DD28E222F
:100185008F178E168D158C1475985243878053C41E
:10019500F843C420AB17AA16A915A8147F407E42C0
:1001A5007D0F7C0012003FC3E49FFFE49EFE7401B7
:1001B5009DFDE49CFC78081200E28FC6AB17AA16D9
:1001C500A915A8147F407E427D0F7C0012003FC315
:1001D500E49FFFE49EFE74019DFDE49CFCEFE48F2B
:0501E500C543C408221F
:0703D1003098FDAF99C298BE
:0103D8002202
:0803D900C2998F993099FD22B1
:1001EA008F1B8E1A8D198C1875F85253C4F8AB1BD5
:1001FA00AA1AA919A8187F407E427D0F7C00120016
:10020A003FC3E49FFFE49EFE74019DFDE49CFC78DD
:10021A00081200E28FC6AB1BAA1AA919A8187F40B8
:10022A007E427D0F7C0012003FC3E49FFFE49EFEE6
:0F023A0074019DFDE49CFCEFE48FC543C40822D2
:0703E10030F8FDAF9AC2F8ED
:0103E80022F2
:0803E900C2F98F9A30F9FD22E0
:030000000203C533
:0C03C500787FE4F6D8FD7581200200F579
:1000030075F008758200EF2FFFEE33FECD33CDCCB4
:1000130033CCC58233C5829BED9AEC99E582984037
:100023000CF582EE9BFEED9AFDEC99FC0FD5F0D614
:10003300E4CEFBE4CDFAE4CCF9A88222B800C1B93E
:100043000059BA002DEC8BF084CFCECDFCE5F0CB7C
:10005300F97818EF2FFFEE33FEED33FDEC33FCEBB5
:1000630033FB10D703994004EB99FB0FD8E5E4F970
:10007300FA227818EF2FFFEE33FEED33FDEC33FC5D
:10008300C933C910D7059BE99A4007EC9BFCE99A51
:10009300F90FD8E0E4C9FAE4CCFB2275F010EF2F96
:1000A300FFEE33FEED33FDCC33CCC833C810D70796
:1000B3009BEC9AE899400AED9BFDEC9AFCE899F8D1
:0E00C3000FD5F0DAE4CDFBE4CCFAE4C8F92264
:1000D100EB9FF5F0EA9E42F0E99D42F0E89C45F085
:0100E10022FC
:1000E200E8600FECC313FCED13FDEE13FEEF13FFFC
:0300F200D8F12220
:00000001FF
